:02000002D0002C
:1040000000400D00A0530D00000006000C0005014B
:0840100004014E040000000051
:10401800B44F0D0009480A49884208B505D0094A35
:10402800824202D0121A00F07DFF0748074A002199
:10403800121A00F082FF014808BD00BF7CE303208C
:1040480010530D00E4E30320E4E30320F0E703202A
:1040580070B500F0F3FA074C074BE41AA4080025E2
:104068001E46A54204D056F8253098470135F8E792
:1040780070BD00BF10530D00D8520D0000F014B8E9
:1040880008B500F027F8BDE8084000F0A5BA00F030
:1040980079B900F077B90078B0FA80F04009704734
:1040A800012303707047000008B500F0A3FB4FF42C
:1040B800165100F08DFB00F09DFB00F090FB0028EE
:1040C800F9D000F097FB0249BDE8084000F0FDB9BF
:1040D800C84F0D00704700F011B8000008B5024B3A
:1040E8001B689B68019308BD6802030008B5024B72
:1040F8001B68DB68019308BD6802030008B5024B22
:104108001B681B68019308BD2C02030008B5024B0D
:104118001B68DB69019308BD3002030008B5024B38
:104128001B685B68019308BD1802030008B5024BC1
:104138001B685B69019308BD1802030008B5024BB0
:104148001B689B68019308BD4802030008B5024B31
:104158001B681B69019308BD4802030008B5024BA0
:104168001B685B69019308BD4802030008B5024B50
:104178001B681B6B019308BD4802030008B5024B7E
:104188001B685B6C019308BD4802030008B5024B2D
:104198001B685B69019308BD6402030008B5024B04
:1041A8001B681B68019308BD3C02030008B5024B5D
:1041B8001B68DB68019308BD3C02030008B5024B8D
:1041C8001B681B69019308BD3C02030008B5024B3C
:1041D8001B685B69019308BD3C02030008B5024BEC
:1041E8001B689B69019308BD3C02030008B5024B9C
:1041F8001B68DB69019308BD3C02030008B5024B4C
:104208001B689B6A019308BD3C02030008B5024B7A
:104218001B681B68019308BD4C02030008B5024BDC
:104228001B685B68019308BD4C02030008B5024B8C
:104238001B681B69019308BD4C02030008B5024BBB
:104248001B685B69019308BD4C02030008B5024B6B
:104258001B689B69019308BD4C02030008B5024B1B
:104268001B68DB69019308BD4C02030008B5024BCB
:104278001B681B6A019308BD4C02030008B5024B7A
:104288001B685B6A019308BD4C02030008B5024B2A
:104298001B685B68019308BD2002030008B5034B47
:1042A8001B68D3F88830019308BD00002002030082
:1042B80008B5034B1B68D3F89430019308BD000080
:1042C8002002030008B5024B1B685B68019308BD18
:1042D8004002030008B5024B1B689B68019308BDA8
:1042E8004002030008B5024B1B68DB68019308BD58
:1042F8004002030008B5024B1B681B69019308BD07
:104308004002030008B5024B1B685B69019308BDB6
:104318004002030008B5024B1B689B69019308BD66
:104328004002030008B5024B1B68DB69019308BD16
:104338004002030008B5024B1B681B6A019308BDC5
:104348004002030008B5024B1B681B6B019308BDB4
:104358004002030008B5024B1B685B6B019308BD64
:104368004002030008B5024B1B68DB6B019308BDD4
:104378004402030008B5024B1B681B68019308BD83
:104388001C02030008B5024B1B685B68019308BD5B
:104398001C020300002211464068FFF7CBBF002231
:1043A80011464068FFF7D6BF00224068FFF7CABF32
:1043B800002281F001014068FFF7B4BF00231A46CC
:1043C80019464068FFF7A6BF00231A4619464068F9
:1043D800FFF798BF002211464068FFF78BBF002205
:1043E80011464068FFF776BF002202214068FFF7B8
:1043F80079BF00231A464068FFF764BF024B0322C7
:104408005A60024A1A607047E8E303201C500D0006
:10441800704710B50446FFF73AFE204610BD00006D
:1044280070B5084B0360044600250E4640F80C5F43
:10443800FFF79CFE30462671FFF768FEA560204610
:1044480070BD00BF50500D00044B00204FF6FF72A6
:10445800187058809A80FFF719BF00BFF0E3032057
:10446800F8B506460D468F180024BD420CD03368B7
:1044780015F8011B9B6830469847002801DB044467
:10448800F3E7002C08BF04462046F8BD70B5054682
:104498000C46084649B100F081FD2B6802462146CA
:1044A8002846DB68BDE87040184770BD03689B6804
:1044B800184738B50D210546FFF7F8FF0A210446CD
:1044C8002846FFF7F3FF204438BD38B50546FFF707
:1044D800DDFF04462846FFF7ECFF204438BD30B521
:1044E8008BB00B4600218DF82410012A98BF0A22B0
:1044F8000DF12304B3FBF2F505FB123303F0FF03C0
:10450800092B94BF30333733DBB2214604F8013925
:104518002B46002DEED1FFF7B9FF0BB030BD10B41C
:104528002AB903685DF8044B9B68C9B21847D2B230
:104538005DF8044BFFF7D3BFFFF7F1BF014B024A09
:104548001A607047F8E3032010510D00024B1A68F7
:10455800024B1A60704700BF7CE30320FCE3032092
:1045680010B58368044613B10322014698472046D4
:1045780010BD10B50446FFF7F3FF204610BD00003C
:104588000348044A04490023836000F06FBB00BF5E
:1045980000E40320E4E303207B450D0008B50C4B41
:1045A80033B100F027F903681B699847002809DC34
:1045B800084B63B100F084F903681B699847002829
:1045C80003DC08BDAFF30080F2E7AFF3008008BD5D
:1045D800000000000000000008B5FFF7DFFFFFF74C
:1045E800A5FD014B186008BD4CE7032007B5002363
:1045F80000931A466FF07701FFF75AFE03B05DF893
:1046080004FB000007B543880A2B08D0502B09D1BA
:10461800094B1B683BB103B05DF804EB1847FFF783
:10462800E5FF06E0002300931A466FF07701FFF7D5
:104638003FFE03B05DF804FB10E4032010B5FFF75C
:104648006DFD044600F082FC074B13B12046AFF322
:10465800008000210448FFF785FE00210348BDE8DB
:104668001040FFF71BBE00BF000000000D460D0004
:10467800704710B50446FFF70AFD204610BDF0B597
:10468800037D062B8DB00E4600F104074FF00004A1
:1046980002D000F1080518E00CAD394605F8304D98
:1046A8002F232A460A20FFF771FD284600F076FCE2
:1046B80033680246DB682946304698470FE024B144
:1046C8002E213046FFF7F2FE044415F8011D0A2298
:1046D8003046FFF731FFBD420444F0D120460DB00B
:1046E800F0BD000010B5054B0446112240F8043B0C
:1046F800002100F022FC204610BD00BF6C510D00C7
:104708000346074A10B543F8042B01F1100251F88B
:10471800044B43F8044B9142F9D10A781A7010BD42
:104728006C510D0010B59DF8084044EA032343EA94
:10473800024242EA016104234160037510BD37B5A6
:104748000D788B784A78C97800912946FFF7EAFFF7
:1047580003B030BD4174704770470021007CFFF7FB
:1047680075BD0121007CFFF771BD007CFFF766BDB8
:10477800007CFFF75BBD38B50446007C0D46FFF7AB
:104788005DFD002801DC607C20B12946207CFFF714
:1047980065FD012038BD007CFFF768BD10B50446F3
:1047A800FFF775FC204610BD10B504460023636072
:1047B8004FF47A73A360054B2360012308462174E4
:1047C80063741146FFF722FD204610BD80510D008D
:1047D8000022007CFFF722BD007CFFF74FBDFFF7EA
:1047E800FBBF10B514220446002100F0A6FB2046AA
:1047F80010BD000030B50E4D87B001A8FFF7F1FFDE
:10480800296811F0010410D12846FFF744FC60B173
:1048180001AA21460748FFF7C7FF2846FFF740FCD3
:10482800054A0649034800F021FA024807B030BD9E
:1048380014E4032018E40320E4E3032061470D0097
:10484800704741747047007CFFF7D8BC007CFFF7C5
:10485800B5BC007CFFF7C2BC007CFFF7B7BC007C8E
:10486800FFF7C4BC10B50446FFF711FC204610BD85
:1048780070B5457C04460E4625B9007CFFF7BEFCA2
:10488800002805DD3146207CBDE87040FFF78EBC6E
:10489800284670BD10B504460846114600226260DD
:1048A8004FF47A72A260054A226001222074627471
:1048B8001A46FFF773FC204610BD00BFB0510D002B
:1048C80038B50C4D296811F0010411D12846FFF7BD
:1048D800E2FB68B1084A094B09482146FFF7DAFFAD
:1048E8002846FFF7DDFB074A0749054800F0BEF9EF
:1048F800034838BDC4E40320C8E4032040E403208F
:104908002CE40320E4E3032049480D00002211466B
:104918004068FFF70FBD002211464068FFF71ABD37
:1049280000224068FFF70EBD002281F001014068B7
:10493800FFF7F8BC00231A4619464068FFF7EABC9F
:1049480000231A4619464068FFF7DCBC00221146CE
:104958004068FFF7CFBC002211464068FFF7BABC99
:10496800002202214068FFF7BDBC00231A464068B8
:10497800FFF7A8BC38B5054678B1046844B1A36808
:104988001BB103222146204698472046FFF77FFBAC
:104998002846BDE83840FFF77ABB38BD10B1036838
:1049A8005B681847704710B503680446BBB1586880
:1049B800FFF7C4FB78B923685A7C12B95868FFF727
:1049C800C5FB23685868FFF7C9FB206800232360EC
:1049D80028B1FFF7CFFF206808B1FFF7CBFF2046CB
:1049E80010BD000038B50B4B03600446D0F8CC016D
:1049F80008B1FFF74EFBD4F8C4512DB12846FFF794
:104A0800D2FF2846FFF743FBA06808B1FFF7C6FFAF
:104A1800204638BDE0510D0038B50D4C0D4B2360D4
:104A28000025022304F5E4706360A560C4F8C4514E
:104A3800C4F8C851FFF7A2FB074BC4F8CC51236058
:104A48002046064A0649BDE8384000F00FB900BFC5
:104A58004CE5032048520D00E0510D00E4E303202B
:104A6800ED490D00002211464068FFF743BC0022C3
:104A780011464068FFF75EBC002211464068FFF708
:104A880069BC00224068FFF75DBC002281F001018B
:104A98004068FFF747BC00231A4619464068FFF7ED
:104AA80039BC00231A4619464068FFF72BBC002280
:104AB80011464068FFF70EBC002202214068FFF74C
:104AC80011BC00231A464068FFF7FCBB024B0422C6
:104AD8005A60024A1A6070471CE7032014520D00FE
:104AE80000231A464068FFF7EDBB00220221406808
:104AF800FFF7F8BB002211464068FFF7EBBB002226
:104B080011464068FFF7F6BB00231A46194640686D
:104B1800FFF7F8BB00231A4619464068FFF7FABBAF
:104B2800002281F001014068FFF7FCBB00224068C9
:104B3800FFF708BC002211464068FFF70BBC0022B3
:104B480011464068FFF7F6BB2DE9F043002495B005
:104B580016460D460746FFF7C5FD214620220CA83C
:104B6800009400F0EAF940230C9321466B460CAA06
:104B78003046FFF7BBFA0446002844D1024601211B
:104B88006868FFF7B7FB0221804622466868FFF78E
:104B9800B1FB009E81462146002E34D0002932D137
:104BA8007368022B02D00A2B09D02AE0B8F1000F53
:104BB80027D0716938460431FFF7C1FD20E0B9F10B
:104BC800000F1ED07469112201A800F0B6F906235F
:104BD8008DF8143001AD04F10803183418685968C9
:104BE8002A4603C20833A3421546F7D101A906A8ED
:104BF80007ADFFF785FD0FCD3C1D0FC42B68237053
:104C08000121F669C8E70098FFF768FA384615B039
:104C1800BDE8F083024B034A1A6000225A607047CD
:104C280024E7032048520D0070B50C4C0C4E0D4D76
:104C380000212046FFF7F4FB20460B4C324629465C
:104C480000F014F801212046FFF7EAFB3246294616
:104C58002046BDE8704000F009B800BF2CE70320EB
:104C6800E4E3032019440D003CE703200B4601460A
:104C7800184600F049B90000184B1A68D1075CBF04
:104C880001221A60164B1A68D2075CBF01221A600B
:104C9800144B1A68D0075CBF01221A60124B1A68BD
:104CA800D1075CBF01221A60104B1A68D2075CBF9B
:104CB80001221A600E4B1A68D0075CBF01221A60E5
:104CC8000C4B1A68D1075CBF01221A600A4B1A689C
:104CD800D2075CBF01221A60704700BF6CE703204F
:104CE80068E7032064E7032060E703205CE703200C
:104CF80058E7032054E7032050E70320244B1A68A1
:104D0800D0075CBF01221A60224B1A68D1075CBF2A
:104D180001221A60204B1A68D2075CBF01221A6070
:104D28001E4B1A68D0075CBF01221A601C4B1A6818
:104D3800D1075CBF01221A601A4B1A68D2075CBF00
:104D480001221A60184B1A68D0075CBF01221A604A
:104D5800164B1A68D1075CBF01221A60144B1A68F7
:104D6800D2075CBF01221A60124B1A68D0075CBFD9
:104D780001221A60104B1A68D1075CBF01221A6021
:104D88000E4B1A68D2075CBF01221A60704700BF39
:104D98009CE7032098E7032094E7032090E703208B
:104DA8008CE7032088E7032084E7032080E70320BB
:104DB8007CE7032078E7032074E7032070E70320EB
:104DC800244B1A68D0075CBF01221A60224B1A686C
:104DD800D1075CBF01221A60204B1A68D2075CBF5A
:104DE80001221A601E4B1A68D0075CBF01221A60A4
:104DF8001C4B1A68D1075CBF01221A601A4B1A684B
:104E0800D2075CBF01221A60184B1A68D0075CBF32
:104E180001221A60164B1A68D1075CBF01221A607A
:104E2800144B1A68D2075CBF01221A60124B1A6829
:104E3800D0075CBF01221A60104B1A68D1075CBF0B
:104E480001221A600E4B1A68D2075CBF01221A6051
:104E5800704700BFCCE70320C8E70320C4E703205E
:104E6800C0E70320BCE70320B8E70320B4E703202A
:104E7800B0E70320ACE70320A8E70320A4E703205A
:104E8800A0E70320184B1A68D1075CBF01221A60FB
:104E9800164B1A68D2075CBF01221A60144B1A68B5
:104EA800D0075CBF01221A60124B1A68D1075CBF99
:104EB80001221A60104B1A68D2075CBF01221A60DF
:104EC8000E4B1A68D0075CBF01221A600C4B1A6897
:104ED800D1075CBF01221A600A4B1A68D2075CBF6F
:104EE80001221A60704700BFECE70320E8E70320BF
:104EF800E4E70320E0E70320DCE70320D8E703200A
:104F0800D4E70320D0E7032010B5054C13462CB195
:104F18000A4601460220AFF3008010BD204610BDAE
:104F28000000000010B5431E0A44914204D011F855
:104F3800014B03F8014FF8E710BD024403469342C2
:104F480002D003F8011BFAE77047000038B5124B8E
:104F58001C68A36B0546D3B91820FFF70BFA43F278
:104F68000E33A06303804AF6CD33438041F23423E5
:104F780083804EF26D63C3804DF6EC630381052395
:104F880043810B23838101220023C0E90423A36BFF
:104F980000221D615A6138BDE0E30320034613F87F
:104FA800012B002AFBD1181A013870471D400D004B
:104FB80059400D0085400D0089400D00000000009B
:104FC800426567696E6C696E6553796E63005468F3
:104FD800652063757272656E742064617465206102
:104FE8006E642074696D65206973202573200A003A
:104FF8005468652063757272656E742074696D6596
:10500800206973202573200A0000000000000000BA
:1050180000000000FB430D00F1430D00E7430D00C5
:10502800DD430D00D1430D00C5430D00B9430D000C
:10503800B1430D00A7430D009D430D00514B0D00DA
:10504800000000000000000019440D001B440D0082
:1050580066006C6E00666E00636F6465006465745C
:1050680061696C000D0A00253031307520005D2023
:10507800002564002C200028293A2000205B0063CA
:105088006F6465203D200025690064657461696C62
:1050980073203D2000626175640053657269616C1C
:1050A8000053657269616C310074797065007061D4
:1050B80072616D00636D6400696400686E640073FA
:1050C80074726D0066696C74006C766C006164645F
:1050D80048616E646C65720072656D6F76654861D3
:1050E8006E646C657200656E756D48616E646C65A2
:1050F8007273004A534F4E53747265616D4C6F67FB
:1051080048616E646C657200617070006E6F6E65E8
:1051180000747261636500696E666F007761726E14
:10512800006572726F720070616E696300616C6C09
:10513800005A00252B3033643A2530327500255942
:105148002D256D2D25645425483A254D3A2553259E
:105158007A0061736374696D6500000000000000E7
:105168000000000087460D0079460D007B460D00C3
:10517800000000000000000061470D00A5470D0079
:105188007F470D0069440D0079470D0063470D0006
:105198006B470D009F470D0073470D005D470D00DD
:1051A800000000000000000049480D006D480D0097
:1051B80079480D0069440D0055480D0061480D00FF
:1051C8005B480D0067480D004B480D004F480D0027
:1051D800000000000000000073490D0069490D003F
:1051E8005F490D0055490D0049490D003D490D0025
:1051F80031490D0029490D001F490D0015490D00C1
:10520800514B0D000000000000000000CB4A0D00CB
:10521800C14A0D00B74A0D006D4A0D00AB4A0D009A
:105228009F4A0D00934A0D008B4A0D00814A0D00DC
:10523800774A0D00514B0D000000000000000000EF
:10524800E94A0D00F34A0D00FD4A0D00074B0D0019
:10525800114B0D001D4B0D00294B0D00354B0D005A
:105268003D4B0D00474B0D00514B0D000000000059
:105278000000000000000000000000000000000026
:105288000000000000000000000000000000000016
:105298000000000000000000000000000000000006
:1052A80000000000000000000000000000000000F6
:1052B80000000000000000000000000000000000E6
:1052C8000000000000000000000000004300000093
:1052D800DF400D0005440D0051440D0045450D000B
:1052E80055450D0089450D00214A0D00D54A0D0090
:1052F8001D4C0D00314C0D00814C0D00054D0D006D
:08530800C94D0D008D4E0D0092
:105310005A510D000000000074520D0094520D000F
:10532000B4520D000000000000000000000000006A
:1053300000000000D4520D0000000000000000003A
:10534000000000000000000000000000000000005D
:10535000000000000000000000000000000000004D
:10536000000000000000000000000000000000003D
:085370000000000080E30320AF
:10537800FFFFFFFF00000102030405060708090AF2
:105388000B0C0D0E0F101112131415161718191AED
:085398001B1C1D1E1F20280034
:0453A00078563412F5
:04000003D0004018D1
:00000001FF
