:02000002D0002C
:1040000000400D0064810D00000006000C00050159
:084010000401DE0500000000C0
:0440180060710D00C6
:10401C0009480A49884208B505D0094A824202D0AB
:10402C00121A02F045FC0748074A0021121A02F046
:10403C004AFC014808BD00BFACDE0320747C0D00B7
:10404C0074E3032074E30320F0E7032070B501F060
:10405C00FBFC074C074BE41AA40800251E46A5429E
:10406C0004D056F8253098470135F8E770BD00BFED
:10407C00647C0D00247C0D0000F040B808B500F005
:10408C002DF9BDE8084001F0A1BC01F0FFB801F02A
:10409C00FDB8000008B5034A00210C2001F032F8ED
:1040AC00FEE700BFD14E0D000078B0FA80F0400959
:1040BC007047012303707047704708B501F0B6F8DC
:1040CC0020B10020BDE8084001F0B8B808BD08B523
:1040DC00002001F0BBF810B101F0A8F858B900208D
:1040EC0001F0B4F828B101F0A1F880F00100C0B2E1
:1040FC0008BD012008BD01F091F8E9E708B501F011
:10410C00A9FD4FF4165101F093FD02F0FFF801F0F8
:10411C0087FE01F09FFD01F092FD0028F9D001F01F
:10412C0099FD084901F029FB3C220221064800F0C8
:10413C001DFB054800F06AFC0348BDE8084000F090
:10414C00E7BB00BF74710D0078E3032038B5204C39
:10415C000546204600F05AFC204600F0D9FB002210
:10416C0011462046012300F059FA20460123002273
:10417C007F2100F053FA204601233F22002100F05A
:10418C004DFA01233F2220467F2100F047FA2046BA
:10419C00012100F0FDFD2046012100F0FEFD1E2254
:1041AC0020461B2100F0F1FD2946204601F0D2FAF1
:1041BC004FF47A7001F0CCFB204600F0A9FB4FF4D1
:1041CC007A7001F0C5FB2046BDE8384000F0A0BB7A
:1041DC0078E3032070B594B03C4905A801F007FAC8
:1041EC003A4909A801F003FAB9EE080A01F040FBBC
:1041FC0000F070FE14AC00250646FFF75EFFFFF7DB
:10420C0066FF44F81C5D2946204601F027F8B042B1
:10421C0053D301F08CFB0146204601F045FB2146AF
:10422C0005A801F014FA204601F09AF913230B2289
:10423C0005A9204601F02CFA214609A801F007FA3D
:10424C00204601F08DF901F005FD059901F095FA74
:10425C0001F000FD099901F090FA2B461922214634
:10426C0005A801F0FCF92B46092202A909A801F0C6
:10427C00F6F901F0EFFC2346154A294601F0A7FA9E
:10428C0001F0E8FC02AB134A294601F0A0FAFFF753
:10429C0014FFFFF71CFF14A8294640F84C5D00F0F2
:1042AC00DDFFB04209D301F0D5FC02AB0A4A012173
:1042BC0001F08DFA02A8FFF749FF09A801F050F9A7
:1042CC0005A801F04DF914B070BD00BF2F780D009A
:1042DC0081710D00A3710D00BC710D0008B5FFF7C5
:1042EC0079FF4EF6602142F2107001F0BCFDBDE882
:1042FC00084001F02DBB10B52421044602F03AF819
:10430C00204610BD10B5074C00F064FD4FF0FF3196
:10431C00204600F0CDF92046034A0449BDE8104080
:10432C0002F01AB878E3032074E30320C5400D00B3
:10433C00F0B5447EBDF81450022C08D0032C0FD0DD
:10434C00012C70D10489013CA21A12B20CE04489F0
:10435C00013CA21A0489E41A611A12B209B262E091
:10436C004489E41A611A09B2002A5BDBB0F90840EF
:10437C00944240F390800029BEBF5B181BB2002111
:10438C00B0F90A00CC188442C4BF431A1BB2002BEC
:10439C0040F38180C9B2C8083F4F02EBC01211F044
:1043AC000701DBB207EB020417D0C1F10801C8B258
:1043BC003A4983420E5C3FBFC3EB000EFF2141FA2A
:1043CC000EF10E40B95C012D0CBF3143B143834259
:1043DC00B95460D3181AC3B28034072B17D9012DE6
:1043EC000CBFFF20002004F180011A46083AD2B21B
:1043FC00072A01F8800C01F18001F7D8A3F108021B
:10440C00C2F3C402013204EBC21403F00703002B05
:10441C0041D0234AD25C2378012D0CBF1343934324
:10442C002370F0BDF0BD002A35DBB0F90A40944290
:10443C0031DD0029BCBFC9180BB2B0F90870B8BF88
:10444C000021CE18BE42C4BF631A1BB2002B22DD62
:10445C00D01001EBC011104802F0070201440120FA
:10446C0000FA02F28542D2B209D1013B1BB25C1CAC
:10447C0011D011F8010B104301F8010CF5E7D243F0
:10448C00D2B2013B1BB2581C05D011F8010B1040E5
:10449C0001F8010CF5E7F0BDBCDE0320B4DE03200F
:1044AC00ACDE0320F0B5447EBDF81450022C08D0CD
:1044BC00032C0FD0012C12D10489E41AA21A12B2C7
:1044CC006DE00489013C611A4489E41AA21A09B20C
:1044DC0012B204E04489013C611A09B25FE0002980
:1044EC005CDBB0F908408C4240F39180002ABCBFE1
:1044FC00D21813B2B0F90A00B8BF0022D418844203
:10450C00C4BF831A1BB2002B40F38180D4B2404E3F
:10451C00DAB2E30801EBC31114F0070406EB010354
:10452C0017D0C4F10804E0B23A4C8242275C3FBF7A
:10453C00C2EB000EFF2444FA0EF42740745C012DEC
:10454C000CBF3C43BC438242745460D3101AC2B2B9
:10455C008033072A17D9012D0CBFFF24002403F147
:10456C00800011460839C9B2072900F8804C00F1C7
:10457C008000F7D8A2F10801C1F3C401013103EBAB
:10458C00C11302F00702002A41D02349895C1A7832
:10459C00012D0CBF0A438A431A70F0BDF0BD0029EF
:1045AC0035DBB0F90A408C4231DD002ABCBFD21891
:1045BC0013B2B0F90870B8BF0022D618BE42C4BFFF
:1045CC00A31A1BB2002B22DDC81002EBC01210483C
:1045DC0001F007011044012202FA01F19542C9B21F
:1045EC0009D15A1E13B25C1C11D010F8012B0A43CE
:1045FC0000F8012CF5E7C943C9B25A1E13B25A1C74
:10460C0005D010F8012B0A4000F8012CF5E7F0BD9D
:10461C00BCDE0320B4DE0320ACDE0320F8B50D1E97
:10462C00064614461F463FDB00F0BCFB85423BDAD6
:10463C00002C39DB304600F0B8FB844234DA3046CB
:10464C0000F0AEFB022827D131897089013901387D
:10465C00491B001B0DB204B206E0012804D13389BA
:10466C00013B1B1B2C461DB20820012F94FBF0F0C4
:10467C0000B20E4B04F0070205EBC01104D19740B9
:10468C005A5C17435F54F8BD585C012707FA02F2D5
:10469C0020EA02025A54F8BD0328DED17389013B8B
:1046AC005B1B25461CB2DFE7F8BD00BFBCDE032058
:1046BC0038B5402204460D46802100F087FA064B9F
:1046CC002360FF23637784F82130E377A37784F8A2
:1046DC002050204638BD00BFD8710D0038B590F978
:1046EC001D30013304460D4628D090F921000121DC
:1046FC0080B201F094FD94F91F00002180B201F00A
:10470C008EFD94F92100002180B201F088FD94F80F
:10471C0022302BB101F0C0FD294600F0E1FE05E08E
:10472C002B460122A17F607F01F092FD94F92100BC
:10473C00012180B2BDE8384001F071BD01F0E6FD09
:10474C0094F91B1001F076FB01F0E0FD03680021E9
:10475C009B68984701F0DAFD036829469B689847E7
:10476C0001F0D4FDBDE8384001F06BBB38B5044610
:10477C000D46217790F91D30C276013337D090F970
:10478C001F00012180B201F039FD94F921000121B3
:10479C0080B201F033FD94F822305BB994F91D001E
:1047AC00012180B201F02AFD94F91E00012180B292
:1047BC0001F024FD94F82230EBB194F92100012191
:1047CC0080B201F02CFD01F067FD012100F0F9FD34
:1047DC0001F062FD102100F05FFE01F05DFD002193
:1047EC0000F000FE01F058FD00F0DAFD03E001F0EE
:1047FC008DFD01F015FB94F92000012180B201F030
:10480C00FDFC94F92000012180B201F008FD01208B
:10481C0001F09EF894F92000002180B201F0FFFC19
:10482C000A2001F095F894F92000012180B201F0E2
:10483C00F6FC2046AE21FFF751FF2046D521FFF7AD
:10484C004DFF20468021FFF749FF2046A821FFF7A6
:10485C0045FF20463F21FFF741FF2046D321FFF7BC
:10486C003DFF20460021FFF739FF20464021FFF78E
:10487C0035FF8D212046FFF731FF012D0CBF102194
:10488C0014212046FFF72AFF20462021FFF726FFA0
:10489C0020460021FFF722FF2046A121FFF71EFF33
:1048AC002046C821FFF71AFF2046DA21FFF716FF32
:1048BC0020461221FFF712FF81212046FFF70EFF41
:1048CC00012D0CBF9F21CF212046FFF707FFD921D7
:1048DC002046FFF703FF012D0CBF2221F1212046BA
:1048EC00FFF7FCFE2046DB21FFF7F8FE20464021B7
:1048FC00FFF7F4FE2046A421FFF7F0FE2046A62188
:10490C00FFF7ECFE2046AF21BDE83840FFF7E6BECE
:10491C002DE9F04121210446FFF7E0FE002120465D
:10492C00FFF7DCFE7F212046FFF7D8FE2221204630
:10493C00FFF7D4FE00212046FFF7D0FE07212046CA
:10494C00FFF7CCFE94F91D30DFF8BC80013335D075
:10495C0094F92100012180B201F061FC94F91F004F
:10496C00012180B201F05BFC94F92100002180B29E
:10497C0001F055FC012000F0A5FA002594F8223036
:10498C0018F805602BB101F087FC314600F0A8FD4A
:10499C0005E033460122A17F607F01F059FC01350F
:1049AC00B5F5806FEAD1012000F08CFA94F9210062
:1049BC00012180B2BDE8F04101F031BC002501F0CD
:1049CC00A5FC94F91B1001F035FA01F09FFC03686B
:1049DC0040219B689847002601F098FCAF190368AA
:1049EC00BFB29B6818F8071001369847102EF3D108
:1049FC00103501F08BFCADB201F023FAB5F5806FE8
:104A0C00DDD1BDE8F08100BFBCDE03204FF4806235
:104A1C000021014801F057BFBCDE032000F0DAB9D9
:104A2C002DE9F04F85B01E46BDF93830BDF83CA0DD
:104A3C0015469A1A002AB8BF52420092721A002ADE
:104A4C00B8BF524201920C46009A01998A428146A3
:104A5C0005DD32461E46134622462C461546B44208
:104A6C0005DD2A461D4613462246344616465A1B79
:104A7C00002AB8BF5242C4EB06089D42B4BF0123C2
:104A8C004FF0FF331FFA88F8029303920FFA88F75E
:104A9C00022297FBF2F7B4421FDC019A009B93426F
:104AAC00D9F80030C8BF2246D3F810B0C8BF294689
:104ABC005346DCBF2A4621464846D847039BFF1A7B
:104ACC00BBB21FB2002F05DA029A08EB030715449C
:104ADC002DB23FB2013424B2DDE705B0BDE8F08F52
:104AEC002DE9F347BDF82C600768BDF928A00096A6
:104AFC000446FF6991460D469846B84723680096D0
:104B0C000AF1FF324A44DF6929464346204612B275
:104B1C00B847236800969F694A4653462946204663
:104B2C00B84723680A9608F1FF3129449D694A4623
:104B3C00534609B22046AC4602B0BDE8F047604788
:104B4C0037B5013B13440468BDF8185001951BB2EE
:104B5C00009364690B46A04703B030BD37B5BDF870
:104B6C00185004688DE82400013B0B4464691BB2A7
:104B7C00A04703B030BD2DE9F347BDF92880BDF83F
:104B8C002C90054617460C4601EB030A54450BDAEC
:104B9C002B68CDF800909E69214643463A4628463C
:104BAC000134B04724B2F1E702B0BDE8F08713B589
:104BBC00B0F90E200468019100920022B0F90C307B
:104BCC00646A1146A04702B010BD704730B5018130
:104BDC000024084D42818181C2814FF6FF71012270
:104BEC00446005604476048244820276C1828182EC
:104BFC00827630BD10720D002DE9F04F8FB0054656
:104C0C000691BDF860100791BDF864100891B0F9D9
:104C1C000C1006989DF8688081427CDDB5F90E1069
:104C2C00914278DD062111FB0800002873DD02EBB0
:104C3C00C80000286FDD03EB830396B20C9306F1DA
:104C4C0008039BB2099100240D93052C1CBF334B18
:104C5C000C9A059616BF1B194FF0000913F8029019
:104C6C0004961FFA88F30393039ABDF8183004FBDB
:104C7C00023213FA84F312B21BB20A9237460FFABD
:104C8C0088FA0B9319F0010F11D0B8F1010F2B68B2
:104C9C0003D1D3F810B0079B14E0079A0192CDF81A
:104CAC0000A0D3F824B0BDF91020534618E0079BA0
:104CBC00089A934217D0B8F1010F2B6807D1D3F89B
:104CCC0010B013463AB20B992846D8470BE0089A15
:104CDC000192CDF800A0BDF91420D3F824B05346AE
:104CEC000A992846D847049B039A13449BB2049311
:104CFC00059B13449BB2013705930D9BBFB29F429A
:104D0C004FEA5909BED1099B013B013413F0FF0353
:104D1C0064B2099399D10FB0BDE8F08F40720D00C9
:104D2C0030B50A2985B004460B4604D1027E438A6D
:104D3C0003EBC20323E00D2924D0057EB0F9122029
:104D4C00B0F910100295C58A0195858A0095FFF778
:104D5C0053FF227E238A91B201EB410003EB400307
:104D6C00A07E1BB2238268B1B4F90C006FF005056C
:104D7C0005FB0202934205DD638A03EBC1036382E8
:104D8C0000232382012005B030BD0182428270478E
:104D9C00002908BF012101767047C18281827047CA
:104DAC00407E7047B0F90C007047B0F90E007047A8
:104DBC0000F010B808B5024B1B689B68019308BD46
:104DCC006802030008B5024B1B68DB68019308BD41
:104DDC006802030008B5024B1B681B68019308BDF1
:104DEC002C02030008B5024B1B689B68019308BD9D
:104DFC002C02030008B5024B1B68DB68019308BD4D
:104E0C002C02030008B5024B1B681B69019308BDFB
:104E1C002C02030008B5024B1B681B68019308BDEC
:104E2C003002030008B5024B1B689B68019308BD58
:104E3C003002030008B5024B1B68DB68019308BD08
:104E4C003002030008B5024B1B681B69019308BDB7
:104E5C003002030008B5024B1B685B69019308BD67
:104E6C003002030008B5024B1B68DB69019308BDD7
:104E7C003002030008B5024B1B681B6A019308BD86
:104E8C003002030008B5024B1B685B6A019308BD36
:104E9C003002030008B5024B1B681B6C019308BD64
:104EAC003002030008B5024B1B685B6C019308BD14
:104EBC003002030008B5024B1B685B68019308BD08
:104ECC001802030008B5024B1B68DB68019308BD90
:104EDC001802030008B5024B1B685B69019308BDFF
:104EEC001802030008B5024B1B68DB69019308BD6F
:104EFC001802030008B5024B1B689B6D019308BD9B
:104F0C001802030008B5024B1B689B68019308BD8F
:104F1C004802030008B5024B1B681B69019308BDCE
:104F2C004802030008B5024B1B685B69019308BD7E
:104F3C004802030008B5024B1B685B6C019308BD6B
:104F4C004802030008B5024B1B689B6C019308BD1B
:104F5C004802030008B5024B1B685B69019308BD4E
:104F6C006402030008B5024B1B681B68019308BD63
:104F7C003C02030008B5024B1B68DB68019308BDBB
:104F8C003C02030008B5024B1B681B69019308BD6A
:104F9C003C02030008B5024B1B685B69019308BD1A
:104FAC003C02030008B5024B1B689B69019308BDCA
:104FBC003C02030008B5024B1B68DB69019308BD7A
:104FCC003C02030008B5024B1B681B6A019308BD29
:104FDC003C02030008B5024B1B689B6A019308BD99
:104FEC003C02030008B5024B1B68DB68019308BD4B
:104FFC002802030008B5024B1B689B69019308BD8E
:10500C002802030008B5024B1B68DB69019308BD3D
:10501C002802030008B5024B1B681B6A019308BDEC
:10502C002802030008B5024B1B685B6A019308BD9C
:10503C002802030008B5024B1B689B6A019308BD4C
:10504C002802030008B5024B1B68DB6A019308BDFC
:10505C002802030008B5024B1B681B6B019308BDAB
:10506C002802030008B5024B1B685B6B019308BD5B
:10507C002802030008B5024B1B681B6C019308BD8A
:10508C002802030008B5024B1B681B68019308BD7E
:10509C004C02030008B5024B1B685B68019308BD0A
:1050AC004C02030008B5024B1B681B69019308BD39
:1050BC004C02030008B5024B1B685B69019308BDE9
:1050CC004C02030008B5024B1B689B69019308BD99
:1050DC004C02030008B5024B1B68DB69019308BD49
:1050EC004C02030008B5024B1B681B6A019308BDF8
:1050FC004C02030008B5024B1B685B6A019308BDA8
:10510C004C02030008B5024B1B685B6B019308BD96
:10511C006002030008B5024B1B681B68019308BDB5
:10512C002002030008B5024B1B685B68019308BDA5
:10513C002002030008B5024B1B685B69019308BD94
:10514C002002030008B5024B1B689B6D019308BD40
:10515C002002030008B5034B1B68D3F88830019379
:10516C0008BD00002002030008B5034B1B68D3F8F0
:10517C009430019308BD00002002030008B5024BD7
:10518C001B685B68019308BD4002030008B5024B25
:10519C001B689B68019308BD4002030008B5024BD5
:1051AC001B68DB68019308BD4002030008B5024B85
:1051BC001B681B69019308BD4002030008B5024B34
:1051CC001B685B69019308BD4002030008B5024BE4
:1051DC001B689B69019308BD4002030008B5024B94
:1051EC001B68DB69019308BD4002030008B5024B44
:1051FC001B681B6A019308BD4002030008B5024BF3
:10520C001B681B6B019308BD4002030008B5024BE1
:10521C001B685B6B019308BD4002030008B5024B91
:10522C001B689B68019308BD4402030008B5024B40
:10523C001B685B69019308BD4402030008B5024B6F
:10524C001B68DB6A019308BD4402030008B5024BDE
:10525C001B681B6B019308BD4402030008B5024B8D
:10526C001B685B6B019308BD4402030008B5024B3D
:10527C001B68DB6B019308BD4402030008B5024BAD
:10528C001B681B68019308BD1C02030008B5024B88
:10529C001B685B68019308BD1C02030008B5024B38
:1052AC001B689B68019308BD1C02030008B5024BE8
:1052BC001B681B69019308BD1C02030008B5024B57
:1052CC001B689B69019308BD1C02030008B5024BC7
:1052DC001B685B6A019308BD1C02030008B5024BF6
:1052EC001B681B6B019308BD1C02030000221146B6
:1052FC004068FFF77BBF002211464068FFF786BF6E
:10530C0000224068FFF77ABF002281F0010140685B
:10531C00FFF764BF00231A4619464068FFF756BFD3
:10532C0000231A4619464068FFF748BF0022114671
:10533C004068FFF73BBF002211464068FFF726BFCD
:10534C00002202214068FFF729BF00231A4640685B
:10535C00FFF714BF024B03225A60024A1A607047CF
:10536C009CE3032044770D00704710B50C210446D4
:10537C0001F000F8204610BD0021FFF78BBD002185
:10538C00FFF790BD10B5054B03600446017108464C
:10539C00FFF768FD0023A360204610BD78770D0051
:1053AC0010B504460079FFF7E7FF48B920794FF6AE
:1053BC00FF71FFF72FFD2079BDE81040FFF7DFBF2D
:1053CC0010BD38B5044600790D46FFF7D5FF40B93E
:1053DC0020792946FFF726FD2079BDE83840FFF7F4
:1053EC00CEBF38BD38B5044600790D46FFF7C4FF73
:1053FC0040B920792946FFF71DFD2079BDE83840DA
:10540C00FFF7BDBF38BD0000400830B51860002460
:10541C0018688842E5B206D90134082C02D040083D
:10542C001860F5E70725024B5B5D137030BD00BFBC
:10543C0080770D002DE9F04188B0002304460079F7
:10544C0002930E461746FFF797FF054600BB94F8EC
:10545C0004800146142203A801F035FA0B232A46D6
:10546C0003A94046ADF80C30FFF70CFD02AB0DF173
:10547C00070207FB06F104988DF80750FFF7C4FFED
:10548C0020799DF80710FFF7DDFC2079FFF777FFF7
:10549C00029808B0BDE8F08138B5044600790D4695
:1054AC00FFF76AFFC8B9A16871B10C4BC25CAA4284
:1054BC0002D001300828F9D10130C0B2C14001221C
:1054CC002046FFF7B7FF03E029462079FFF7BAFC27
:1054DC002079BDE83840FFF752BF38BD80770D000A
:1054EC0038B5044600790D46FFF746FF40B929460A
:1054FC002079FFF7AFFC05462079FFF740FF00E06D
:10550C000025E8B238BD0079FFF7B4BC10B50446ED
:10551C00006818B1FFF7BAFE0023236010BD10B568
:10552C000446FFF7F3FF204610BD000010B5094CF0
:10553C0000204FF6FF732060A080A0712081638152
:10554C00FFF7F0FD2046044A0449BDE8104000F086
:10555C0003BF00BFA4E3032074E303202B550D000D
:10556C0010B504460068FFF791FE204610BD10B53B
:10557C000446006808B1FFF789FE00232360A3608E
:10558C00636010BD38B504460D4600680131FFF765
:10559C0085FE10B184E82100012038BD10B50368E8
:1055AC00044613B143688B4207D22046FFF7EAFF4B
:1055BC0020B1A3680BB922681370012010BD70B51F
:1055CC000E46114604461546FFF7E8FF18B920466B
:1055DC00FFF7CDFF09E02A463146A560206801F0AF
:1055EC0067F92268A3680021D154204670BD38B5F4
:1055FC000023044603604360836003730D4639B196
:10560C00084601F0DDF9294602462046FFF7D7FF90
:10561C00204638BD38B5054600680C4660B16A684E
:10562C008B689A4206D3096801F0C2F9A368AB6093
:10563C0000230AE0FFF72AFE23682B6063686B6087
:10564C00A368AB60002323606360A36038BD88420D
:10565C0010B5044601D0FFF7DDFF204610BD70B534
:10566C000E469AB191B185689D4202D800230B7009
:10567C0070BD541EED1A0168AC4228BF2C4619446B
:10568C002246304601F0B9F90023335570BD0000B5
:10569C00F8B59A420F461D460C4988BF134614466E
:1056AC00064684BF2C461D46FFF7A1FFBA689442FC
:1056BC000AD83968954294BFC4EB0502C4EB0202C8
:1056CC0021443046FFF77BFF3046F8BD2F780D00A4
:1056DC0010B50446006808B1FFF734FC204610BD35
:1056EC0010B5064C002320462360FFF723FC204610
:1056FC00034A0449BDE8104000F02EBEB0E303207D
:10570C0074E30320DD560D00F8B506460D468F18E0
:10571C000024BD420CD0336815F8011B9B68304641
:10572C009847002801DB0444F3E7002C08BF04462B
:10573C002046F8BD70B505460C46084649B101F047
:10574C003FF92B68024621462846DB68BDE87040CD
:10575C00184770BD08B5FFF7EDFF08BD03689B68DF
:10576C00184738B50D210546FFF7F8FF0A21044606
:10577C002846FFF7F3FF204438BD38B50546FFF740
:10578C00D9FF04462846FFF7ECFF204438BD30B55E
:10579C008BB00B4600218DF82410012A98BF0A22E9
:1057AC000DF12304B3FBF2F505FB123303F0FF03F9
:1057BC00092B94BF30333733DBB2214604F801395F
:1057CC002B46002DEED1FFF7B5FF0BB030BD0CB45E
:1057DC002DE9F04387B000AF07F13804054654F8C3
:1057EC00049B3C600E4623464A461421381DFFF7A5
:1057FC006DFD132805D8391D2846FFF79BFF04467D
:10580C0013E000F1080323F00703E846ADEB030DAA
:10581C00411C23464A4668463C60FFF757FD6946E3
:10582C002846FFF787FF0446C5461EB12846FFF7FA
:10583C0098FF044420461C37BD46BDE8F04302B037
:10584C0070470000014B024A1A607047B4E3032012
:10585C00FB770D0008B50020FFF7F8FC28B1FFF727
:10586C00E5FC80F00100C0B208BD012008BD0000BD
:10587C00FAEE087AB4EEE70AF1EE10FA0FD4F2EE73
:10588C000C7AB4EEE70AF1EE10FA08DCDFED047ADC
:10589C00044B20EE270ABDEEC00A83ED000A7047C8
:1058AC0000006145C0E3032037B50E4B1B6819445B
:1058BC000D4B1B68044602A8194440F8041D00F067
:1058CC00FFFE00F0B3FE054601F07AF828440023F1
:1058DC0000F8013C29462046FFF789FE204603B01C
:1058EC0030BD00BFC0E30320BCE3032010B5002093
:1058FC00FFF700FB044668B9FFF70CFC01280BD13D
:10590C002046FFF71FFC38B9FFF7A4FF30B9FFF7AB
:10591C0085FCF9E7012010BD002010BDFFF79AFFB0
:10592C000020FFF7E7FA003018BF012010BD08B5C2
:10593C00FFF7DCFFBDE80840FFF7D4BA024B1A684A
:10594C00024B1A60704700BFBCE20320B8E303208F
:10595C000021FFF7EFBB10B58368044613B1032297
:10596C0001469847204610BD10B50446FFF7F3FFDB
:10597C00204610BD0348044A04490023836000F00C
:10598C00EBBC00BFC4E3032074E3032075590D0086
:10599C0008B50C4B33B100F05DF903681B699847EF
:1059AC00002809DC084B63B100F0D6F903681B69C9
:1059BC009847002803DC08BDAFF30080F2E7AFF393
:1059CC00008008BD000000000000000008B5FFF7D3
:1059DC00DFFFFFF77FFA014B186008BD08E70320D3
:1059EC000248034A0349121A00F062BF00F4032074
:1059FC0004F40320707C0D0007B5002300931A46B5
:105A0C006FF07701FFF7B0FB03B05DF804FB00000B
:105A1C0007B543880A2B08D0502B09D1094B1B68BA
:105A2C003BB103B05DF804EB1847FFF7E5FF06E068
:105A3C00002300931A466FF07701FFF795FB03B034
:105A4C005DF804FBD4E3032038B5104C104D2368EB
:105A5C00AB42104B0CBF012200221A7002D0FFF790
:105A6C00BFFF2560FFF726FA044600F035FF0A4B0E
:105A7C0013B12046AFF3008000210748FFF7F6FB77
:105A8C0000210648BDE83840FFF764BB00F4032052
:105A9C001E1C279AD8E30320000000001D5A0D009D
:105AAC00704710B51821044600F064FC204610BD68
:105ABC00F0B5037D062B8DB00E4600F104074FF0B8
:105ACC00000402D000F1080518E00CAD394605F8C9
:105ADC00304D2F232A460A20FFF73CFA284600F0C7
:105AEC006FFF33680246DB682946304698470FE063
:105AFC0024B12E213046FFF731FE044415F8011D68
:105B0C000A223046FFF743FEBD420444F0D1204642
:105B1C000DB0F0BD10B5054B0446112240F8043B06
:105B2C00002100F0D0FE204610BD00BF98780D007B
:105B3C000346074A10B543F8042B01F1100251F843
:105B4C00044B43F8044B9142F9D10A781A7010BDFA
:105B5C0098780D0010B59DF8084044EA032343EAF9
:105B6C00024242EA016104234160037510BD37B55E
:105B7C000D788B784A78C97800912946FFF7EAFFAF
:105B8C0003B030BD41747047704708B50021007CEC
:105B9C00FFF798FA30EA200028BF4FF0FF3008BD1D
:105BAC0008B50121007CFFF78DFA30EA200028BFF0
:105BBC004FF0FF3008BD08B5007CFFF77BFA20EAF8
:105BCC00E07008BD08B5007CFFF76CFA20EAE070C5
:105BDC0008BD007CFFF786BA10B51421044600F00E
:105BEC00C9FB204610BD38B50446007C0D46FFF7B6
:105BFC0061FA002801DC607C28B12946207CFFF783
:105C0C0069FA20EAE07038BD10B5044600236360E1
:105C1C004FF47A73A360054B23600123084621746B
:105C2C0063741146FFF72EFA204610BDAC780D00B8
:105C3C000022007CFFF72EBA007CFFF75BBAFFF75F
:105C4C00FBBF10B514220446002100F03CFE204698
:105C5C0010BD000030B50E4D87B001A8FFF7F1FF65
:105C6C00296811F0010410D12846FEF71DFA60B125
:105C7C0001AA21460748FFF7C7FF2846FEF719FA85
:105C8C00054A0649034800F067FB024807B030BDDF
:105C9C00DCE30320E0E3032074E30320955B0D00B9
:105CAC0070474174704708B5007CFFF793F920EA00
:105CBC00E07008BD08B5007CFFF764F920EAE070DD
:105CCC0008BD08B5007CFFF76DF930EA200028BF4D
:105CDC004FF0FF3008BD08B5007CFFF75BF930EAE8
:105CEC00200028BF4FF0FF3008BD007CFFF762B9E1
:105CFC0010B51421044600F03DFB204610BD70B5D4
:105D0C00457C04460E4625B9007CFFF763F9002854
:105D1C0005DD3146207CBDE87040FFF72BB92846E5
:105D2C0070BD000010B504460846114600226260A2
:105D3C004FF47A72A260054A2260012220746274C8
:105D4C001A46FFF70FF9204610BD00BFDC780D0096
:105D5C00007CFFF737B9000038B50C4D296811F0FD
:105D6C00010411D12846FEF79FF968B1084A094B86
:105D7C0009482146FFF7D6FF2846FEF79AF9074A4D
:105D8C000749054800F0E8FA034838BD8CE40320C5
:105D9C0090E4032008E40320F4E3032074E30320DD
:105DAC00AD5C0D007047F8B5064615460C468F18CD
:105DBC00BC4206D0336814F8011B9B6830469847E8
:105DCC00F6E72846F8BD0022007CFFF723B9002136
:105DDC00007CFFF727B90021007CFFF72BB90021CD
:105DEC00007CFFF72FB90021007CFFF733B910B509
:105DFC001421044600F0BEFA204610BD10B504462E
:105E0C00002363604FF47A73A360044B217408463B
:105E1C0023601146FFF72EF9204610BD0C790D00BA
:105E2C0000231A461946007CFFF7DCB80022007CE0
:105E3C00FFF7E0B8C9B2FFF7F9BF0022007CFFF70B
:105E4C00E1B80121FFF7F9BF0021007CFFF70AB987
:105E5C0010B5044630B100F067FD90FBF4F303FB82
:105E6C00140010BD10BD884210B5044604DA081A9F
:105E7C00FFF7EEFF204410BD10BD00221146406814
:105E8C00FFF7B4B9002211464068FFF7BFB90022F2
:105E9C004068FFF7B3B9002281F001014068FFF7B9
:105EAC009DB900231A4601214068FFF78FB90023E2
:105EBC001A4619464068FFF781B90022114640681E
:105ECC00FFF774B9002211464068FFF75FB9002252
:105EDC0002214068FFF762B900231A464068FFF7B9
:105EEC004DB938B5054688B104684CB1A3681BB1EF
:105EFC0003222146204698471021204600F03AFA0A
:105F0C0028461421BDE8384000F034BA38BD10B131
:105F1C0003685B681847704710B503680446BBB14B
:105F2C005868FEF7EFFF78B923685A7C12B95868A5
:105F3C00FEF7F0FF23685868FEF7F4FF2068002393
:105F4C00236028B1FFF7CDFF206808B1FFF7C9FF28
:105F5C00204610BD38B50446D0F8C40108B1FEF790
:105F6C0096F8D4F8C00108B1FEF7ECFFD4F8BC5198
:105F7C0035B12846FFF7D0FF0421284600F0FAF986
:105F8C00206808B1FFF7C3FF204638BD10B5044B9D
:105F9C00044640F8083BFFF7DDFF204610BD00BF6C
:105FAC0034790D0038B50E4C0E4B236000250223BE
:105FBC0004F5E4706360A560C4F8C451C4F8C8511A
:105FCC00FEF7B8FF084BC4F8CC5184F8D0512360CD
:105FDC002046064A0649BDE8384000F0BDB900BF6E
:105FEC0014E503209C790D0034790D0074E3032033
:105FFC00995F0D00002211464068FFF7D7B80022C8
:10600C0011464068FFF7F2B8002211464068FFF7CE
:10601C00FDB800224068FFF7F1B8002281F00101C1
:10602C004068FFF7DBB800231A4619464068FFF7B3
:10603C00CDB800231A4619464068FFF7BFB80022B6
:10604C0011464068FFF7A2B8002202214068FFF712
:10605C00A5B800231A464068FFF790B8024B0422FB
:10606C005A60024A1A607047E8E6032068790D000E
:10607C0000231A464068FFF781B8002202214068CD
:10608C00FFF78CB8002211464068FFF77FB800225A
:10609C0011464068FFF78AB800231A461946406833
:1060AC00FFF78CB800231A4619464068FFF78EB8E4
:1060BC00002281F001014068FFF790B8002240688F
:1060CC00FFF79CB8002211464068FFF79FB80022EA
:1060DC0011464068FFF78AB82DE9F043002495B0CB
:1060EC0016460D460746FFF715FD214620220CA843
:1060FC00009400F0E8FB40230C9321466B460CAA5D
:10610C003046FEF75FFE0446002844D102460121CA
:10611C006868FFF74BF80221804622466868FFF753
:10612C0045F8009E81462146002E34D0002932D1FC
:10613C007368022B02D00A2B09D02AE0B8F1000FA9
:10614C0027D0716938460431FFF711FD20E0B9F111
:10615C00000F1ED07469112201A800F0B4FB0623B5
:10616C008DF8143001AD04F108031834186859681F
:10617C002A4603C20833A3421546F7D101A906A843
:10618C0007ADFFF7D5FC0FCD3C1D0FC42B6823705A
:10619C000121F669C8E70098FEF70CFE384615B0E9
:1061AC00BDE8F083024B034A1A6000225A60704724
:1061BC00F0E603209C790D0010B5044600F06CF855
:1061CC00FFF7A1F928B1A4F10B03022B01D8002091
:1061DC0010BD00F09BF8FFF737FE08B1012CF6D983
:1061EC00FFF7BAFDFFF7B4FD18B1A4F10903012BB9
:1061FC00EDD9232C8CBF0020012010BD232838B5ED
:10620C0004460D460AD8FF2908D0FFF7D5FF28B160
:10621C0029462046BDE83840FEF7E4BD38BD38B508
:10622C0004460D46FEF7E6FDFF2810D0062804D8DC
:10623C004D2323FA00F0C30709D42046FFF7BCFF17
:10624C0028B129462046BDE83840FEF7DBBD38BDF5
:10625C002DE9F04190461E46072407460D46B8F13D
:10626C00000F04D1C4F1070146FA01F101E046FA2E
:10627C0004F101F001013846FFF7D1FF0121284656
:10628C00FFF7CDFF00212846FFF7C9FF14F1FF34BB
:10629C00E5D2BDE8F081000038B50B4D296811F04E
:1062AC0001040FD12846FDF7FFFE58B121460748DF
:1062BC00FFF768F82846FDF7FCFE054A0549034838
:1062CC0000F04AF8014838BD04E70320F8E6032043
:1062DC0074E3032075530D0070B5044614252A464B
:1062EC00094E002100F0EFFA258020253146A560EB
:1062FC002561284600F040F831466060284600F0E1
:10630C003BF8E060204670BDC8790D0030B50E4DED
:10631C00296811F0010487B013D12846FDF7C4FE9B
:10632C0078B101A8FFF7D8FF01AA21460748FFF76B
:10633C0065FD2846FDF7BDFE054A0649034800F0F9
:10634C000BF8024807B030BD0CE7032010E7032020
:10635C0074E30320B15D0D000B460146184600F0B6
:10636C00A1B90000024B1868BFF35F8F704700BFE4
:10637C0024E70320FDF789BE00F000B810B5002813
:10638C0014BF044601242046FEF778FF20B9FFF71E
:10639C00E9FF08B18047F6E710BD0000184B1A68FA
:1063AC00D1075CBF01221A60164B1A68D2075CBF7A
:1063BC0001221A60144B1A68D0075CBF01221A60C4
:1063CC00124B1A68D1075CBF01221A60104B1A6875
:1063DC00D2075CBF01221A600E4B1A68D0075CBF53
:1063EC0001221A600C4B1A68D1075CBF01221A609B
:1063FC000A4B1A68D2075CBF01221A60704700BFB3
:10640C0044E7032040E703203CE7032038E7032060
:10641C0034E7032030E703202CE7032028E7032090
:10642C00244B1A68D0075CBF01221A60224B1A68F1
:10643C00D1075CBF01221A60204B1A68D2075CBFDF
:10644C0001221A601E4B1A68D0075CBF01221A6029
:10645C001C4B1A68D1075CBF01221A601A4B1A68D0
:10646C00D2075CBF01221A60184B1A68D0075CBFB8
:10647C0001221A60164B1A68D1075CBF01221A6000
:10648C00144B1A68D2075CBF01221A60124B1A68AF
:10649C00D0075CBF01221A60104B1A68D1075CBF91
:1064AC0001221A600E4B1A68D2075CBF01221A60D7
:1064BC00704700BF74E7032070E703206CE70320EC
:1064CC0068E7032064E7032060E703205CE7032010
:1064DC0058E7032054E7032050E703204CE7032040
:1064EC0048E70320244B1A68D0075CBF01221A60CE
:1064FC00224B1A68D1075CBF01221A60204B1A6824
:10650C00D2075CBF01221A601E4B1A68D0075CBF11
:10651C0001221A601C4B1A68D1075CBF01221A6059
:10652C001A4B1A68D2075CBF01221A60184B1A6802
:10653C00D0075CBF01221A60164B1A68D1075CBFEA
:10654C0001221A60144B1A68D2075CBF01221A6030
:10655C00124B1A68D0075CBF01221A60104B1A68E4
:10656C00D1075CBF01221A600E4B1A68D2075CBFC0
:10657C0001221A60704700BFA4E70320A0E70320A4
:10658C009CE7032098E7032094E7032090E703207F
:10659C008CE7032088E7032084E7032080E70320AF
:1065AC007CE7032078E70320184B1A68D1075CBFFF
:1065BC0001221A60164B1A68D2075CBF01221A60BE
:1065CC00144B1A68D0075CBF01221A60124B1A6870
:1065DC00D1075CBF01221A60104B1A68D2075CBF4E
:1065EC0001221A600E4B1A68D0075CBF01221A6098
:1065FC000C4B1A68D1075CBF01221A600A4B1A684F
:10660C00D2075CBF01221A60704700BFC4E70320A9
:10661C00C0E70320BCE70320B8E70320B4E703205E
:10662C00B0E70320ACE70320A8E70320094B70B5C3
:10663C001C68256C06463DB91A20FEF71FFE1A226F
:10664C002064294600F03FF9216C3046BDE87040CB
:10665C0000F002B824E3032010B50C46416903692D
:10666C00826986B001F26C710491016803914168F2
:10667C00029181680191C1680091074903EB4303C2
:10668C000B44064902EB42020A4420460449FEF739
:10669C000DFE204606B010BDDE790D00C9790D0047
:1066AC00027A0D0010B5054C13462CB10A46014672
:1066BC000220AFF3008010BD204610BD000000008A
:1066CC0038B5074B1C68E36B05461BB92420FEF755
:1066DC00D5FDE063E16B2846BDE8384000F002B818
:1066EC0024E303202DE9F0410C46804600F094FC95
:1066FC0021460746404600F093FC466906F26C764C
:10670C00B307044605D1642296FBF2F302FB136334
:10671C004BB94FF4C87596FBF5F305FB1365B5FA49
:10672C0085F35B0900E001235F4A302505FB032557
:10673C0000F0A6FA00F0A6FA5C4B1B68F3B17B687C
:10674C009E4205D13968D8F80030FA6941B90AE09F
:10675C00304600F0EDF90028F4D14FF0FF330DE096
:10676C00934208DB01E0934207DABA6B9342ACBF69
:10677C000023012302E0002300E001232362236AAB
:10678C00012B0CBFF96B396A4FF461633C2091FB10
:10679C00F3F603FB1613616893FBF0F200FB123067
:1067AC002368891AA26861601B1A921B3B2B236019
:1067BC00A26003DD013161603C3B04E0002B03DA95
:1067CC00013961603C33236063683B2B03DD01328C
:1067DC00A2603C3B04E0002B03DA013AA2603C339C
:1067EC006360A368172B22DDE2690132E261A269C2
:1067FC000132062AC8BF0022A261E268183B0132AE
:10680C00A3602369E26055F823108A4246DD013308
:10681C000C2B0CBF63692361A2EB0102E26001BF88
:10682C00013300222261636108BFE26136E0002B74
:10683C0034DAE269013AE261A269013A48BF062200
:10684C00A261E2681833013AE260A36032BB2369AB
:10685C00013B01D423611DE00B23236163695A1EA4
:10686C0012F0030F626103F26B7305D1642193FB89
:10687C00F1F201FB12324AB94FF4C87193FBF1F2F9
:10688C0001FB1233B3FA83F35B0900E0012303F538
:10689C00B673E361236955F82330E36000F0F1F936
:1068AC002046BDE8F08100BF887B0D00E4E70320A3
:1068BC0010B5431E0A44914204D011F8014B03F861
:1068CC00014FF8E710BD02440346934202D003F88F
:1068DC00011BFAE77047000038B5124B1C68A36B1C
:1068EC000546D3B91820FEF7C9FC43F20E33A0635A
:1068FC0003804AF6CD33438041F2342383804EF239
:10690C006D63C3804DF6EC630381052343810B2338
:10691C00838101220023C0E90423A36B00221D61A3
:10692C005A6138BD24E30320194B10B51C68A36BC6
:10693C00D3B91820FEF7A2FC43F20E33A0630380F8
:10694C004AF6CD33438041F2342383804EF26D639B
:10695C00C3804DF6EC630381052343810B238381B4
:10696C0001220023C0E90423A16B0A4C0B6948697E
:10697C00094A5C4302FB0040A3FB0223013203449F
:10698C0043F10003C1E9042323F0004010BD00BF14
:10699C0024E303202DF451582D7F954C10F8012B36
:1069AC0011F8013B012A28BF9A42F7D0D01A704740
:1069BC00034611F8012B03F8012B002AF9D170477B
:1069CC00034613F8012B002AFBD1181A0138704723
:1069DC0030B582B1451E013915F8013F11F8014F50
:1069EC00A34206D1EC431444E04201D0002BF3D176
:1069FC001C46181B30BD104630BD10B5034642B1C5
:106A0C0011F8014B03F8014B013A002CF7D11A4451
:106A1C0000E010BD934202D003F8014BFAE710BD21
:106A2C002DE9F04780463C48D0F800900E4635469C
:106A3C0015F8014B09EB0400407800F0080000F059
:106A4C00FF0708B12E46F2E72D2C03D1B51C747844
:106A5C00012703E02B2C04BF7478B51C13B1102B49
:106A6C000AD153E0302C4FD1287800F0DF005828A1
:106A7C0045D16C78102302354FF0FF3C0026BCFB4F
:106A8C00F3FC03FB0CFA6FEA0A0A304609EB040E1E
:106A9C009EF801E01EF0040F01D0303C0BE01EF01C
:106AAC00030E1AD0BEF1010F0CBF4FF0370E4FF092
:106ABC00570ECEEB0404A3420FDD002E08DB60451D
:106ACC0006D801D1544503DC03FB0040012601E04C
:106ADC004FF0FF3615F8014BD8E7002E07DA2223CA
:106AEC00C8F800304FF0FF302AB9BDE8F08707B185
:106AFC00404272B106B1691E1160BDE8F0873024C6
:106B0C00002BB9D10823B7E70A23B5E7302CABD05B
:106B1C00B2E7BDE8F08700BFC0E2032013460A4687
:106B2C00014602480068FFF77BBF00BF24E3032047
:106B3C002DE9F74F044600F06FFA40F2B1739C4216
:106B4C0040F396806FF4F663E318A4F2B2729B10D4
:106B5C0040F26D1505FB0235A4F26D726FF0630304
:106B6C0092FBF3F36FF4C8622B44A5184FF4C87270
:106B7C0095FBF2F51D44642394FBF2F794FBF3F6BA
:106B8C0002FB174703FB164600F13803B7FA87FEE2
:106B9C00019304F0030344604FEA5E1E0146009328
:106BAC004FF0070C0B7A4A2B0ED14B69009AEC185C
:106BBC0002B906B927B93B2BD4BF0023012300E04F
:106BCC0000232344013B3FE0442B02D14B692B446F
:106BDC003AE0009B2BB9002E0CBFF0464FF0010899
:106BEC0000E0F046244BCC68302202FB0838A8F1B8
:106BFC00040AA9460123A34204DA5AF804BF01335C
:106C0C00D944F8E709F1040393FBFCFBCBEBCB0A6B
:106C1C00012CCAEB030A4B69B8BF012404F1804470
:106C2C00B3EB0A0A0B6904F1FF3403F1FF3348BFDD
:106C3C000AF1070AC3EBC30358F824405344A34298
:106C4C0001DB073BFBE74B448C690C4A02FB03431B
:106C5C000C6A234441F81C3F019B9942A2D1C369A1
:106C6C00826B9342ACBF002301230360012000E040
:106C7C00002003B0BDE8F08F887B0D00805101002F
:106C8C0070477047014B186800F002B824E30320EA
:106C9C002DE9F04F8DB0074600F0BEF9B049B14E6A
:106CAC000446384600F0B0F9054660B9AE4BAF4A21
:106CBC001860AF4B1860AF4B30681A605A60FEF723
:106CCC00E5FA356048E1316879B93068FEF7DEFAEB
:106CDC002846FFF775FE411C3846FEF7FFFA306078
:106CEC0048B12946FFF764FE05E0FFF757FE002880
:106CFC0000F03281E9E72B789F4AA0493A2B08BF74
:106D0C0001350AAE33462846FEF7D8FA002840F380
:106D1C0023810A9BEF18EB5C2D2B03D101374FF02D
:106D2C00FF3503E02B2B08BF013701250DF1200A9D
:106D3C000DF11E0B4FF000080396CDF808A001963C
:106D4C00CDF800B0334607AA8D49ADF81E80384601
:106D5C00ADF82080FEF7B2FA404540F3FD80BDF857
:106D6C001E20BDF82030DFF824923C2101FB0233B9
:106D7C00BDF81C204FF4616101FB02335D432562B9
:106D8C007C4D7D4B2B600A9B7C491F444A46334605
:106D9C003846FEF793FA404508DC2B686B60724B63
:106DAC00226A1A60724BC3F80080D5E00A9BC5F8C2
:106DBC000490FD18FB5C2D2B03D101354FF0FF37F0
:106DCC0003E02B2B08BF013501270023ADF81C3045
:106DDC00ADF81E30ADF820300A930396CDF808A01C
:106DEC000196CDF800B0334607AA65492846FEF750
:106DFC0065FA002804DC236AA3F56163E3630EE003
:106E0C00BDF81E20BDF820303C2101FB0233BDF83B
:106E1C001C204FF4616101FB02335F43E7630A9B63
:106E2C0027461D444FF000092B782C2B08BF013549
:106E3C0095F80080B8F14D0F26D10DF12603029381
:106E4C0009AB00930396019633460DF122024D498E
:106E5C002846FEF733FA03287ED1BDF822104B1ECC
:106E6C000B2B79D8BDF82420531E042B74D8BDF8F5
:106E7C002630062B70D887F80880F9603A617B6160
:106E8C000A9B05EB03082AE0B8F14A0F06BF01354F
:106E9C00434644230A220BA928460593FFF73EFEDE
:106EAC00DDF82C80ADF826004545059B14D14D230B
:106EBC00B9F1000F07D123720323E360022323618E
:106ECC00C4F814900BE084F824300B23A362012344
:106EDC00E3620023236302E080B23B7278610223F9
:106EEC00ADF81C300023ADF81E30ADF820300A93FD
:106EFC0098F800302F2B0BD10396CDF808A00196F3
:106F0C00CDF800B0334607AA1F494046FEF7D6F924
:106F1C00BDF81E20BDF820303C2101FB0233BDF82A
:106F2C001C204FF4616101FB0233BB610A9D09F126
:106F3C000109B9F1020F454407F11C077FF474AF46
:106F4C006068FFF7F5FD084B226A1A60E36B9B1A29
:106F5C00074A18BF012313600DB0BDE8F08F00BFC6
:106F6C00E87B0D00E0E70320E8E70320EB7B0D0056
:106F7C00E4E7032028E30320D3E70320EF7B0D0095
:106F8C00127C0D00FE7B0D00117C0D00C8E7032068
:106F9C002DE9F84F07468B46904600F0D9F8194B6F
:106FAC001D689A463DB15C46234613F8012B42B14D
:106FBC003D2A1C46F8D1384600F0CBF80020BDE83D
:106FCC00F88FCBEB0404A94659F8040B0028F2D037
:106FDC0022465946FFF7FCFC88B959F8043C1E19A7
:106FEC001B5D3D2B0BD1DAF80030ED1AAD10384695
:106FFC00C8F8005000F0ADF8701CBDE8F88F4D4695
:10700C00E1E700BF70E3032007B501AAFFF7C0FF5B
:10701C0003B05DF804FB00000048704730E3032028
:10702C000268474BF0B592FBF3F403FB1422002AE1
:10703C00BCBF02F5A83202F5C0724FF4616004F5D2
:10704C002F2492FBF0F300FB13224FF03C00ACBF5B
:10705C0004F66C2404F66B248B6092FBF0F300FBBB
:10706C0013224B600A600723E21C92FBF3F3C3EB81
:10707C00C303D31A8B61334B334D94FBF5F503FBF0
:10708C00054448F6AC62B4FBF2F2224440F2B45729
:10709C00B4FBF7F3D21A2D48B4FBF0F048F6946623
:1070AC00131AB3FBF6F6344440F26D12B3FBF2F054
:1070BC00B3FBF7F3E31A02FB1033992403EB8302BF
:1070CC000232B2FBF4F20A2A04FB02F404F10206C7
:1070DC004FF00504B6FBF4F434BF02266FF009063A
:1070EC0016444FF4C87202FB05055F1C012E98BFB5
:1070FC000135B3F5997FA7EB040702D3A3F5997279
:10710C0014E0820705D16424B0FBF4F204FB1202F4
:10711C004AB94FF4C872B0FBF2F402FB1400B0FA97
:10712C0080F2520900E001223B331A44A5F26C753F
:10713C000023CA614D610E61CF600B620846F0BD41
:10714C00805101004FC5FDFFB13A0200B03A020078
:10715C00704770471D400D0059400D0085400D00D3
:10716C0089400D0000000000426567696E6C696E15
:10717C0053796E63005468652063757272656E7422
:10718C00206461746520616E642074696D6520698A
:10719C0073202573200A005468652063757272652C
:1071AC006E742074696D65206973202573200A0044
:1071BC0043757272656E742074696D6520697320F5
:1071CC00257300000000000000000000C5400D0009
:1071DC0003430D002D4D0D0015570D0029460D00D4
:1071EC002D4A0D00B1440D003D430D00ED4A0D003C
:1071FC00834B0D00BB4B0D00D74B0D000000000066
:10720C000000000000000000000000002D4D0D00EB
:10721C0015570D00A1400D002D4A0D004D4B0D00D2
:10722C00694B0D00ED4A0D00834B0D00BB4B0D005F
:10723C00D74B0D0000000000003E5B4F5B3E3E6BE9
:10724C004F6B3E1C3E7C3E1C183C7E3C181C577DF4
:10725C00571C1C5E7F5E1C00183C1800FFE7C3E740
:10726C00FF0018241800FFE7DBE7FF30483A060E52
:10727C002629792926407F050507407F05253F5A99
:10728C003CE73C5A7F3E1C1C08081C1C3E7F142209
:10729C007F22145F5F005F5F06097F017F006689B4
:1072AC00956A606060606094A2FFA29408047E04FA
:1072BC000810207E201008082A1C08081C2A080820
:1072CC001E101010100C1E0C1E0C30383E383006E0
:1072DC000E3E0E06000000000000005F00000007DC
:1072EC00000700147F147F14242A7F2A122313080A
:1072FC00646236495620500008070300001C2241E6
:10730C00000041221C002A1C7F1C2A08083E080889
:10731C000080703000080808080800006060002039
:10732C00100804023E5149453E00427F400072491C
:10733C004949462141494D331814127F10274545C0
:10734C0045393C4A494931412111090736494949D6
:10735C0036464949291E0000140000004034000044
:10736C0000081422411414141414004122140802AD
:10737C00015909063E415D594E7C1211127C7F4920
:10738C004949363E414141227F4141413E7F494975
:10739C0049417F090909013E414151737F080808A1
:1073AC007F00417F41002040413F017F0814224172
:1073BC007F404040407F021C027F7F0408107F3ECC
:1073CC004141413E7F090909063E4151215E7F0939
:1073DC00192946264949493203017F01033F4040A0
:1073EC00403F1F2040201F3F4038403F631408148B
:1073FC006303047804036159494D43007F414141C3
:10740C000204081020004141417F040201020440A3
:10741C0040404040000307080020545478407F2827
:10742C004444383844444428384444287F3854541D
:10743C00541800087E090218A4A49C787F08040440
:10744C007800447D40002040403D007F10284400DF
:10745C0000417F40007C047804787C080404783870
:10746C0044444438FC1824241818242418FC7C08A0
:10747C00040408485454542404043F44243C40401D
:10748C00207C1C2040201C3C4030403C44281028D0
:10749C00444C9090907C4464544C44000836410019
:1074AC000000770000004136080002010204023C93
:1074BC002623263C1EA1A161123A4040207A385462
:1074CC0054555921555579412154547841215554DD
:1074DC00784020545579400C1E527212395555552E
:1074EC0059395454545939555454580000457C4119
:1074FC000002457D420001457C40F0292429F0F032
:10750C00282528F07C545545002054547C547C0A82
:10751C00097F4932494949323248484832324A484F
:10752C0048303A4141217A3A42402078009DA0A04F
:10753C007D39444444393D4040403D3C24FF2424A3
:10754C00487E4943662B2FFC2F2BFF0929F620C0C0
:10755C00887E090320545479410000447D41304811
:10756C00484A32384040227A007A0A0A727D0D1954
:10757C00317D2629292F28262929292630484D40B6
:10758C0020380808080808080808382F10C8ACBAB2
:10759C002F102834FA00007B000008142A14222231
:1075AC00142A1408AA005500AAAA55AA55AA000024
:1075BC0000FF00101010FF00141414FF001010FF37
:1075CC0000FF1010F010F0141414FC001414F70049
:1075DC00FF0000FF00FF1414F404FC141417101F18
:1075EC0010101F101F1414141F00101010F00000A6
:1075FC0000001F101010101F10101010F0100000C1
:10760C0000FF101010101010101010FF10000000D0
:10761C00FF140000FF00FF00001F10170000FC0407
:10762C00F414141710171414F404F40000FF00F7EA
:10763C0014141414141414F700F71414141714104D
:10764C00101F101F141414F4141010F010F000007C
:10765C001F101F0000001F14000000FC140000F09D
:10766C0010F01010FF10FF141414FF141010101F42
:10767C0000000000F010FFFFFFFFFFF0F0F0F0F053
:10768C00FFFFFF0000000000FFFF0F0F0F0F0F3870
:10769C00444438447C2A2A3E147E02020606027EAA
:1076AC00027E0263554941633844443C04407E20C9
:1076BC001E2006027E020299A5E7A5991C2A492ADA
:1076CC001C4C7201724C304A4D4D30304878483069
:1076DC00BC625A463D3E494949007E0101017E2A61
:1076EC002A2A2A2A44445F444440514A4440404494
:1076FC004A51400000FF0103E080FF000008086BC6
:10770C006B083612362436060F090F0600001818BF
:10771C000000001010003040FF0101001F01011E8D
:10772C0000191D1712003C3C3C3C000000000000FE
:10773C00000000000000000057530D004D530D00D9
:10774C0043530D0039530D002D530D0021530D00E3
:10775C0015530D000D530D0003530D00F9520D0080
:10776C00E5600D00000000000000000075530D00E6
:10777C0077530D00000810182028303862617564AA
:10778C000053657269616C0053657269616C3100FC
:10779C007479706500706172616D00636D6400696D
:1077AC006400686E64007374726D0066696C7400BA
:1077BC006C766C0061646448616E646C6572007216
:1077CC00656D6F766548616E646C657200656E758B
:1077DC006D48616E646C657273004A534F4E5374FE
:1077EC007265616D4C6F6748616E646C65720061A7
:1077FC00707000253031307520005D20002564004C
:10780C002C200028293A2000205B00636F6465203F
:10781C003D200025690064657461696C73203D200E
:10782C00000D0A0066006C6E00666E00636F646586
:10783C000064657461696C006E6F6E6500747261D2
:10784C00636500696E666F007761726E00657272B7
:10785C006F720070616E696300616C6C00252B3077
:10786C0033643A253032750025592D256D2D25644C
:10787C005425483A254D3A2553257A006173637493
:10788C00696D65000000000000000000BD5A0D008D
:10789C00AD5A0D00AF5A0D000000000000000000B2
:1078AC00955B0D00E55B0D00F35B0D0015570D00AE
:1078BC00D15B0D00975B0D00AD5B0D00DF5B0D0028
:1078CC00C35B0D00915B0D00000000000000000088
:1078DC00AD5C0D00FD5C0D000B5D0D0015570D0032
:1078EC00C15C0D00E35C0D00CF5C0D00F75C0D007E
:1078FC00AF5C0D00B35C0D00000000000000000048
:10790C00B15D0D00FB5D0D00D35D0D00B35D0D0091
:10791C00DB5D0D00E35D0D00EB5D0D00F35D0D0017
:10792C000000000000000000E55E0D00DB5E0D00B5
:10793C00D15E0D00C75E0D00BB5E0D00AF5E0D008D
:10794C00A35E0D009B5E0D00915E0D00875E0D0029
:10795C00E5600D0000000000000000005F600D00FD
:10796C0055600D004B600D0001600D003F600D0077
:10797C0033600D0027600D001F600D0015600D00B9
:10798C000B600D00E5600D00000000000000000021
:10799C007D600D0087600D0091600D009B600D00F7
:1079AC00A5600D00B1600D00BD600D00C9600D003B
:1079BC00D1600D00DB600D00E5600D000053756EAD
:1079CC004D6F6E547565576564546875467269538E
:1079DC0061744A616E4665624D61724170724D61AF
:1079EC00794A756E4A756C4175675365704F63744F
:1079FC004E6F76446563252E337320252E33732505
:107A0C00336420252E32643A252E32643A252E32E8
:107A1C00642025640A000020202020202020202023
:107A2C002828282828202020202020202020202022
:107A3C002020202020202088101010101010101052
:107A4C001010101010101004040404040404040496
:107A5C00041010101010101041414141414101011E
:107A6C0001010101010101010101010101010101FA
:107A7C000101101010101010424242424242020208
:107A8C0002020202020202020202020202020202CA
:107A9C000202101010102000000000000000000076
:107AAC0000000000000000000000000000000000CA
:107ABC0000000000000000000000000000000000BA
:107ACC0000000000000000000000000000000000AA
:107ADC00000000000000000000000000000000009A
:107AEC00000000000000000000000000000000008A
:107AFC00000000000000000000000000000000007A
:107B0C000000000000000000000000000000000069
:107B1C000000000000000000000000000000000059
:107B2C000000000000000000000000000000000049
:107B3C000000000000000000000000000000000039
:107B4C000000000000000000000000000000000029
:107B5C000000000000000000000000000000000019
:107B6C000000000000000000000000000000000009
:107B7C000000000000000000430000001F00000097
:107B8C001C0000001F0000001E0000001F00000071
:107B9C001E0000001F0000001F0000001E0000005F
:107BAC001F0000001E0000001F0000001F0000004E
:107BBC001D0000001F0000001E0000001F00000040
:107BCC001E0000001F0000001F0000001E0000002F
:107BDC001F0000001E0000001F000000545A004748
:107BEC004D54002531305B5E302D392C2B2D5D250D
:107BFC006E004D256875256E2E256875256E2E2513
:107C0C006875256E002F256875256E3A25687525D3
:107C1C006E3A256875256E0011430D00294A0D003A
:107C2C00BD4D0D0061530D0039550D00ED560D0085
:107C3C0051580D0049590D0081590D00B15F0D00CF
:107C4C0069600D00B1610D00A9630D002D640D007C
:107C5C00F1640D00B5650D0000000000000000008F
:047C6C000000000014
:047C70000000000010
:107C7400000103070F1F3F7F0080C0E0F0F8FCFE07
:107C840000000000000000000000000000000000F0
:107C940000000000000000000000000000000000E0
:107CA40000000000000000000000000000000000D0
:107CB4000000000000000000000000000000008040
:107CC40080800000000000000000000000000000B0
:107CD400008080C0C0000000000000000000000020
:107CE4000000000000000000000000000000000090
:107CF4000000000000000000000000000000000080
:107D0400000000000000000000000000000000006F
:107D14000000000080C0E0F0F8FCF8E00000000083
:107D240000000000000000000000000000808080CF
:107D3400808000808000000000808080808000FFC0
:107D4400FFFF000000008080808000008080000031
:107D540080FFFF80800080800080808080008080A1
:107D64000000000000808000008C8E84000080F8F9
:107D7400F8F880000000000000000000000000008F
:107D8400F0F0F0F0F0F0F0F0F0F0F0F0E0E0C080AF
:107D940000E0FCFEFFFFFF7FFFFFFFFFFF0000008E
:107DA4000000000000000000000000FEFFC7010109
:107DB400010183FFFF00007CFEC70101010183FF75
:107DC400FFFF0038FEC78301010183C7FFFF0000E6
:107DD40001FFFF010100FFFF0701010100007FFF18
:107DE40080000000FFFF7F0000FFFFFF000001FF95
:107DF400FFFF010000000000000000000000000080
:107E0400030F3F7F7FFFFFFFFFFFFFFFE7C7C78F22
:107E14008F9FBFFFFFC3C0F0FFFFFFFFFFFCFCFC11
:107E2400FCFCFCFCFCF8F8F0F0E0C00001030303E8
:107E34000303010303000000000103030303010122
:107E44000301000000010303030301010303000015
:107E54000003030000000303000000000000000111
:107E640003030303030100000001030100000003F6
:107E740003010000000000000000000000000000FA
:107E840000000080C0E0F0F9FFFFFFFFFF3F1F0F7D
:107E940087C7F7FFFF1F1F3DFCF8F8F8F87C7DFF4C
:107EA400FFFFFFFFFFFFFF7F3F0F070030300000A1
:107EB40000000000000000000000000000000000BE
:107EC40000000000FEFEFC000000000000000000B6
:107ED40000000000000000000000000000E0C000FE
:107EE400000000000000000000003030000000002E
:107EF400000000000000000000000000000000007E
:107F040000C0FEFFFFFFFFFFFFFFFFFF7F7F3F1F5C
:107F14000F071F7FFFFFF8F8FFFFFFFFFFFEF8E0EA
:107F2400000000010000000000000000FEFE000050
:107F340000FCFEFC0C06060EFCF80000F0F81C0E1B
:107F44000606060CFFFFFF0000FEFE00000000FC1A
:107F5400FEFC00183C7E66E6CE84000006FFFF06A9
:107F640006FCFEFC0C0606060000FEFE0000C0F83F
:107F7400FC4E4646464E7C7840183C76E6CECC8095
:107F840000000000000000000000000000000000ED
:107F94000000000001070F1F1F3F3F3F3F1F0F035B
:107FA4000000000000000000000000000F0F0000AF
:107FB400000F0F0F000000000F0F000003070E0C4E
:107FC40018180C060F0F0F0000010F0E0C180C0FE1
:107FD400070100040E0C180C0F070000000F0F001F
:107FE400000F0F0F0000000000000F0F000000073B
:107FF400070C0C181C0C060600040E0C180C0F07BA
:10800400000000000000000000000000000000006C
:10801400000000000000000000000000000000005C
:10802400000000000000000000000000000000004C
:10803400000000000000000000000000000000003C
:10804400000000000000000000000000000000002C
:10805400000000000000000000000000000000001C
:10806400000000000000000000000000000000000C
:1080740000000000000000000000000000000000FC
:1080840088780D00227A0D0000000000247B0D008A
:10809400447B0D00647B0D00000000000000000024
:1080A4000000000000000000847B0D0000000000C0
:1080B40000000000000000000000000000000000BC
:1080C40000000000000000000000000000000000AC
:1080D400000000000000000000000000000000009C
:1080E4000000000000000000C4E20320EB7B0D0050
:1080F400EB7B0D0001000000000000004A000000BE
:10810400000000000000000000000000000000006B
:1081140000000000000000004A0000000000000011
:10812400000000000000000000000000000000004B
:0881340000000000ECE703204D
:10813C00FFFFFFFF00000102030405060708090A00
:10814C000B0C0D0E0F101112131415161718191AFB
:08815C001B1C1D1E1F20280042
:048164007856341203
:04000003D000401CCD
:00000001FF
