:02000002D0002C
:1040000000400D0000670D00000006000C000501D7
:0840100004014E040000000051
:10401800A8600D0009480A49884208B505D0094A30
:10402800824202D0121A01F0E9FB0748074A002130
:10403800121A01F0EEFB014808BD00BFE4E20320BC
:1040480020660D009CE303209CE30320F0E7032097
:1040580070B500F0B3FD074C074BE41AA40800251F
:104068001E46A54204D056F8253098470135F8E792
:1040780070BD00BF1C660D00E4650D0000F020B89F
:1040880008B500F0ABF8BDE8084000F065BD00F0E9
:1040980091BA00F08FBA0078B0FA80F04009704702
:1040A80001230370704708B5002000F063FA28B1B7
:1040B80000F050FA80F00100C0B208BD012008BD30
:1040C80008B500F057FE4FF4165100F041FE01F01C
:1040D800E5F800F019FF00F04DFE00F040FE002862
:1040E800F9D000F047FE0249BDE8084000F0FDBBEA
:1040F800BC600D0070B592B0354903A800F037FBDD
:10410800334907A800F033FBB9EE080A00F076FC43
:1041180000F09CF80646002000F024FAFFF7C3FFE1
:10412800002851D012AC0025FFF7BDFF44F81C5DF4
:104138002946204600F026FA86423DD800F0BDFC0C
:104148000146204600F076FC214603A800F03FFB1C
:10415800204600F0C5FA13230B2203A9204600F0DD
:1041680067FB214607A800F032FB204600F0B8FAAA
:1041780000F000FE039900F0B8FB00F0FBFD079982
:1041880000F0B3FB2B461922214603A800F038FBA8
:104198002B460922694607A800F032FB00F0EAFD29
:1041A80023460C4A294600F0D9FB00F0E3FD6B4694
:1041B800094A294600F0D2FB07A800F091FA03A8A3
:1041C80000F08EFA12B070BD00F0BCF9A6E700BF8F
:1041D8005E610D00C9600D00EB600D0008B5FFF7CA
:1041E80089FF4EF6602142F2107000F09EFEBDE895
:1041F800084000F073BC00F011B8000008B5024B8D
:104208001B689B68019308BD6802030008B5024B50
:104218001B68DB68019308BD6802030008B5024B00
:104228001B681B68019308BD2C02030008B5024BEC
:104238001B68DB69019308BD3002030008B5024B17
:104248001B685B68019308BD1802030008B5024BA0
:104258001B685B69019308BD1802030008B5024B8F
:104268001B68DB69019308BD1802030008B5024BFF
:104278001B689B6D019308BD1802030008B5024B2B
:104288001B689B68019308BD4802030008B5024BF0
:104298001B681B69019308BD4802030008B5024B5F
:1042A8001B685B69019308BD4802030008B5024B0F
:1042B8001B681B6B019308BD4802030008B5024B3D
:1042C8001B685B6C019308BD4802030008B5024BEC
:1042D8001B685B69019308BD6402030008B5024BC3
:1042E8001B681B68019308BD3C02030008B5024B1C
:1042F8001B68DB68019308BD3C02030008B5024B4C
:104308001B681B69019308BD3C02030008B5024BFA
:104318001B685B69019308BD3C02030008B5024BAA
:104328001B689B69019308BD3C02030008B5024B5A
:104338001B68DB69019308BD3C02030008B5024B0A
:104348001B689B6A019308BD3C02030008B5024B39
:104358001B68DB68019308BD2802030008B5024BFF
:104368001B681B6A019308BD2802030008B5024BAD
:104378001B685B6A019308BD2802030008B5024B5D
:104388001B689B6A019308BD2802030008B5024B0D
:104398001B68DB6A019308BD2802030008B5024BBD
:1043A8001B681B6B019308BD2802030008B5024B6C
:1043B8001B681B6C019308BD2802030008B5024B5B
:1043C8001B681B68019308BD4C02030008B5024B2B
:1043D8001B685B68019308BD4C02030008B5024BDB
:1043E8001B681B69019308BD4C02030008B5024B0A
:1043F8001B685B69019308BD4C02030008B5024BBA
:104408001B689B69019308BD4C02030008B5024B69
:104418001B68DB69019308BD4C02030008B5024B19
:104428001B681B6A019308BD4C02030008B5024BC8
:104438001B685B6A019308BD4C02030008B5024B78
:104448001B681B68019308BD2002030008B5024BD6
:104458001B685B68019308BD2002030008B5024B86
:104468001B685B69019308BD2002030008B5024B75
:104478001B689B6D019308BD2002030008B5034B20
:104488001B68D3F88830019308BD000020020300A0
:1044980008B5034B1B68D3F89430019308BD00009E
:1044A8002002030008B5024B1B685B68019308BD36
:1044B8004002030008B5024B1B689B68019308BDC6
:1044C8004002030008B5024B1B68DB68019308BD76
:1044D8004002030008B5024B1B681B69019308BD25
:1044E8004002030008B5024B1B685B69019308BDD5
:1044F8004002030008B5024B1B689B69019308BD85
:104508004002030008B5024B1B68DB69019308BD34
:104518004002030008B5024B1B681B6A019308BDE3
:104528004002030008B5024B1B681B6B019308BDD2
:104538004002030008B5024B1B685B6B019308BD82
:104548004002030008B5024B1B689B68019308BD35
:104558004402030008B5024B1B685B69019308BD60
:104568004402030008B5024B1B68DB6A019308BDCF
:104578004402030008B5024B1B681B6B019308BD7E
:104588004402030008B5024B1B685B6B019308BD2E
:104598004402030008B5024B1B68DB6B019308BD9E
:1045A8004402030008B5024B1B681B68019308BD51
:1045B8001C02030008B5024B1B685B68019308BD29
:1045C8001C02030008B5024B1B689B68019308BDD9
:1045D8001C02030008B5024B1B681B69019308BD48
:1045E8001C02030008B5024B1B689B69019308BDB8
:1045F8001C02030008B5024B1B685B6A019308BDE7
:104608001C02030008B5024B1B681B6B019308BD15
:104618001C020300002211464068FFF77BBF0022FE
:1046280011464068FFF786BF00224068FFF77ABF4F
:10463800002281F001014068FFF764BF00231A4699
:1046480019464068FFF756BF00231A4619464068C6
:10465800FFF748BF002211464068FFF73BBF002222
:1046680011464068FFF726BF002202214068FFF785
:1046780029BF00231A464068FFF714BF024B0322E4
:104688005A60024A1A607047A0E303200C610D00CB
:10469800704710B50446FFF7FAFC204610BD00002D
:1046A80070B5084B0360044600250E4640F80C5FC1
:1046B800FFF7FCFD30462671FFF7B8FDA5602046E0
:1046C80070BD00BF40610D00044B00204FF6FF7223
:1046D800187058809A80FFF7B9BE00BFA8E303207E
:1046E80010B504460068FFF765FF204610BD10B5F9
:1046F8000446006808B1FFF75DFF00232360A3604C
:10470800636010BD38B504460D4600680131FFF7F7
:1047180059FF10B184E82100012038BD10B50368A5
:10472800044613B143688B4207D22046FFF7EAFFDD
:1047380020B1A3680BB922681370012010BD70B5B1
:104748000E46114604461546FFF7E8FF18B92046FD
:10475800FFF7CDFF09E02A463146A560206801F041
:104768004DF82268A3680021D154204670BD38B5A1
:104778000023044603604360836003730D4639B128
:10478800084601F0C3F8294602462046FFF7D7FF3E
:10479800204638BD38B5054600680C4660B16A68E1
:1047A8008B689A4206D3096801F0A8F8A368AB6041
:1047B80000230AE0FFF7FEFE23682B6063686B6046
:1047C800A368AB60002323606360A36038BD8842A0
:1047D80010B5044601D0FFF7DDFF204610BD38B5FF
:1047E80005460C4641B1084601F090F821460246BC
:1047F8002846FFF7A4FF01E0FFF779FF284638BDF8
:1048080070B50E469AB191B185689D4202D80023D1
:104818000B7070BD541EED1A0168AC4228BF2C46BF
:1048280019442246304601F08EF80023335570BDF6
:104838002DE9F0419A420E461C46104988BF13469E
:104848001546074684BF25461C46FFF790FFB1680A
:104858008D420FD88C4228BF0C463368002213F8CB
:1048680004801A55316838462944FFF7B8FF336881
:1048780003F804803846BDE8F08100BF5E610D0092
:10488800F8B506460D468F180024BD420CD0336893
:1048980015F8011B9B6830469847002801DB044443
:1048A800F3E7002C08BF04462046F8BD70B505465E
:1048B8000C46084649B101F029F82B680246214602
:1048C8002846DB68BDE87040184770BD03689B68E0
:1048D800184738B50D210546FFF7F8FF0A210446A9
:1048E8002846FFF7F3FF204438BD38B50546FFF7E3
:1048F800DDFF04462846FFF7ECFF204438BD30B5FD
:104908008BB00B4600218DF82410012A98BF0A228B
:104918000DF12304B3FBF2F505FB123303F0FF039B
:10492800092B94BF30333733DBB2214604F8013901
:104938002B46002DEED1FFF7B9FF0BB030BD10B4F8
:104948002AB903685DF8044B9B68C9B21847D2B20C
:104958005DF8044BFFF7D3BFFFF7F1BF0CB42DE9A7
:10496800F04387B000AF07F13804054654F8049BBC
:104978003C600E4623464A461421381DFFF73AFE8E
:10498800132805D8391D2846FFF790FF044613E081
:1049980000F1080323F00703E846ADEB030D411CC3
:1049A80023464A4668463C60FFF724FE6946284687
:1049B800FFF77CFF0446C5461EB12846FFF789FF6E
:1049C800044420461C37BD46BDE8F04302B070479A
:1049D800014B024A1A607047B0E3032000620D00E1
:1049E80008B50020FFF7C6FD28B1FFF7B3FD80F03A
:1049F8000100C0B208BD012008BD0000FAEE087A27
:104A0800B4EEE70AF1EE10FA0FD4F2EE0C7AB4EE37
:104A1800E70AF1EE10FA08DCDFED047A044B20EE29
:104A2800270ABDEEC00A83ED000A70470000614501
:104A3800BCE3032037B50E4B1B6819440D4B1B68AC
:104A4800044602A8194440F8041D00F0DFFD00F0F8
:104A580093FD054600F05AFF2844002300F8013C66
:104A680029462046FFF783FE204603B030BD00BF2D
:104A7800BCE30320B8E3032010B50020FFF7F6FBE2
:104A8800044668B9FFF7DAFC01280BD12046FFF786
:104A9800EDFC38B9FFF7A4FF30B9FFF753FDF9E78C
:104AA800012010BD002010BDFFF79AFF0020FFF77E
:104AB800DDFB003018BF012010BD08B5FFF7DCFF93
:104AC800BDE80840FFF7CABB024B1A68024B1A60E0
:104AD800704700BFE4E20320B4E303200021FFF79E
:104AE800BDBC10B58368044613B10322014698473C
:104AF800204610BD10B50446FFF7F3FF204610BD51
:104B08000348044A04490023836000F0E7BB00BF60
:104B1800C0E303209CE30320FD4A0D0008B50C4BBD
:104B280033B100F027F903681B699847002809DCAE
:104B3800084B63B100F084F903681B6998470028A3
:104B480003DC08BDAFF30080F2E7AFF3008008BDD7
:104B5800000000000000000008B5FFF7DFFFFFF7C6
:104B680075FB014B186008BD0CE7032007B500234F
:104B780000931A466FF07701FFF78AFC03B05DF8DF
:104B880004FB000007B543880A2B08D0502B09D135
:104B9800094B1B683BB103B05DF804EB1847FFF7FE
:104BA800E5FF06E0002300931A466FF07701FFF750
:104BB8006FFC03B05DF804FBD0E3032010B5FFF7EA
:104BC8003DFB044600F02EFE074B13B12046AFF321
:104BD800008000210448FFF7DDFC00210348BDE800
:104BE8001040FFF74BBC00BF000000008D4B0D00CC
:104BF800704710B50446FFF74AFA204610BDF0B5D5
:104C0800037D062B8DB00E4600F104074FF000041B
:104C180002D000F1080518E00CAD394605F8304D12
:104C28002F232A460A20FFF751FB284600F06EFE84
:104C380033680246DB682946304698470FE024B1BE
:104C48002E213046FFF742FE044415F8011D0A22C2
:104C58003046FFF781FEBD420444F0D120460DB036
:104C6800F0BD000010B5054B0446112240F8043B86
:104C7800002100F0CEFD204610BD00BF58620D0097
:104C88000346074A10B543F8042B01F1100251F806
:104C9800044B43F8044B9142F9D10A781A7010BDBD
:104CA80058620D0010B59DF8084044EA032343EA12
:104CB800024242EA016104234160037510BD37B521
:104CC8000D788B784A78C97800912946FFF7EAFF72
:104CD80003B030BD4174704770470021007CFFF776
:104CE8008DBB0121007CFFF789BB007CFFF77EBBF1
:104CF800007CFFF773BB38B50446007C0D46FFF710
:104D080075FB002801DC607C20B12946207CFFF778
:104D18007DFB012038BD007CFFF780BB10B5044641
:104D2800FFF7B5F9204610BD10B5044600236360AF
:104D38004FF47A73A360054B23600123084621745E
:104D480063741146FFF73AFB204610BD6C620D00F4
:104D58000022007CFFF73ABB007CFFF767BBFFF738
:104D6800FBBF10B514220446002100F052FD204676
:104D780010BD000030B50E4D87B001A8FFF7F1FF58
:104D8800296811F0010410D12846FFF784F960B1B1
:104D980001AA21460748FFF7C7FF2846FFF780F911
:104DA800054A0649034800F099FA024807B030BDA1
:104DB800D4E30320D8E303209CE30320E14C0D0057
:104DC800704741747047007CFFF7B8BA007CFFF762
:104DD80095BA007CFFF7A2BA007CFFF797BA007C6F
:104DE800FFF7A4BA10B50446FFF751F9204610BDE5
:104DF80070B5457C04460E4625B9007CFFF79EFA3F
:104E0800002805DD3146207CBDE87040FFF76EBA0A
:104E1800284670BD10B50446084611460022626057
:104E28004FF47A72A260054A2260012220746274EB
:104E38001A46FFF753FA204610BD00BF9C620D00CA
:104E480038B50C4D296811F0010411D12846FFF737
:104E580022F968B1084A094B09482146FFF7DAFFE9
:104E68002846FFF71DF9074A0749054800F036FAB2
:104E7800034838BD84E4032088E4032000E40320C9
:104E8800ECE303209CE30320C94D0D007047F8B5FF
:104E9800064615460C468F18BC4206D0336814F8EF
:104EA800011B9B6830469847F6E72846F8BD002264
:104EB800007CFFF753BA0021007CFFF757BA0021A6
:104EC800007CFFF75BBA0021007CFFF75FBA002186
:104ED800007CFFF763BA10B50446FFF7D8F8204600
:104EE80010BD000010B504464FF47A730846A3605D
:104EF8000021044B207461602360FFF757FA2046B5
:104F080010BD00BFCC620D0000231A461946007C74
:104F1800FFF71CBA10B5044630B100F0ABFC90FBAB
:104F2800F4F303FB140010BD10BD884210B504460D
:104F380004DA081AFFF7EEFF204410BD10BD002266
:104F480011464068FFF7E6BA002211464068FFF7AD
:104F5800F1BA00224068FFF7E5BA002281F00101AA
:104F68004068FFF7CFBA00231A4619464068FFF792
:104F7800C1BA00231A4619464068FFF7B3BA00229F
:104F880011464068FFF7A6BA002211464068FFF7AD
:104F980091BA002202214068FFF794BA00231A460A
:104FA8004068FFF77FBA38B5054678B1046844B160
:104FB800A3681BB103222146204698472046FFF7E5
:104FC80066F82846BDE83840FFF761B838BD10B12B
:104FD80003685B681847704710B503680446BBB19F
:104FE8005868FFF74BF978B923685A7C12B95868A2
:104FF800FFF74CF923685868FFF750F92068002339
:10500800236028B1FFF7CFFF206808B1FFF7CBFF77
:10501800204610BD38B50B4B03600446D0F8CC01D0
:1050280008B1FFF736F8D4F8C4512DB12846FFF778
:10503800D3FF2846FFF72BF8A06808B1FFF7C7FF92
:10504800204638BDF4620D0038B50D4C0D4B236079
:105058000025022304F5E4706360A560C4F8C45118
:10506800C4F8C851FFF72AF9074BC4F8CC5123609C
:105078002046064A0649BDE8384000F02FB900BF6F
:105088000CE503205C630D00F4620D009CE3032033
:105098001D500D00002211464068FFF71BBA002280
:1050A80011464068FFF736BA002211464068FFF7FC
:1050B80041BA00224068FFF735BA002281F00101A9
:1050C8004068FFF71FBA00231A4619464068FFF7E1
:1050D80011BA00231A4619464068FFF703BA00229E
:1050E80011464068FFF7E6B9002202214068FFF741
:1050F800E9B900231A464068FFF7D4B9024B0422E5
:105108005A60024A1A607047DCE6032028630D00E3
:1051180000231A464068FFF7C5B9002202214068FB
:10512800FFF7D0B9002211464068FFF7C3B9002243
:1051380011464068FFF7CEB900231A461946406861
:10514800FFF7D0B900231A4619464068FFF7D2B9CD
:10515800002281F001014068FFF7D4B900224068BD
:10516800FFF7E0B9002211464068FFF7E3B90022D3
:1051780011464068FFF7CEB92DE9F043002495B0F9
:1051880016460D460746FFF76DFD214620220CA85E
:10519800009400F03EFB40230C9321466B460CAA7A
:1051A8003046FFF733F80446002844D1024601216F
:1051B8006868FFF78FF90221804622466868FFF782
:1051C80089F9009E81462146002E34D0002932D12B
:1051D8007368022B02D00A2B09D02AE0B8F1000F1D
:1051E80027D0716938460431FFF769FD20E0B9F12D
:1051F800000F1ED07469112201A800F00AFB0623D3
:105208008DF8143001AD04F1080318341868596892
:105218002A4603C20833A3421546F7D101A906A8B6
:1052280007ADFFF72DFD0FCD3C1D0FC42B68237074
:105238000121F669C8E70098FEF7E0FF384615B087
:10524800BDE8F083024B034A1A6000225A60704797
:10525800E4E603205C630D0070B50C4C0C4E0D4D5C
:1052680000212046FFF71CFA20460B4C32462946FF
:1052780000F034F801212046FFF712FA3246294699
:105288002046BDE8704000F029B800BFECE60320D6
:105298009CE3032099460D00FCE6032038B50B4D2E
:1052A800296811F001040FD12846FEF7F4FE58B121
:1052B80021460748FFF716FE2846FEF7F1FE054A85
:1052C8000549034800F00AF8014838BD10E70320F3
:1052D80014E703209CE30320954E0D000B4601467E
:1052E800184600F085B90000184B1A68D1075CBF52
:1052F80001221A60164B1A68D2075CBF01221A6095
:10530800144B1A68D0075CBF01221A60124B1A6846
:10531800D1075CBF01221A60104B1A68D2075CBF24
:1053280001221A600E4B1A68D0075CBF01221A606E
:105338000C4B1A68D1075CBF01221A600A4B1A6825
:10534800D2075CBF01221A60704700BF44E7032000
:1053580040E703203CE7032038E7032034E7032035
:1053680030E703202CE7032028E70320244B1A68A2
:10537800D0075CBF01221A60224B1A68D1075CBFB4
:1053880001221A60204B1A68D2075CBF01221A60FA
:105398001E4B1A68D0075CBF01221A601C4B1A68A2
:1053A800D1075CBF01221A601A4B1A68D2075CBF8A
:1053B80001221A60184B1A68D0075CBF01221A60D4
:1053C800164B1A68D1075CBF01221A60144B1A6881
:1053D800D2075CBF01221A60124B1A68D0075CBF63
:1053E80001221A60104B1A68D1075CBF01221A60AB
:1053F8000E4B1A68D2075CBF01221A60704700BFC3
:1054080074E7032070E703206CE7032068E70320B4
:1054180064E7032060E703205CE7032058E70320E4
:1054280054E7032050E703204CE7032048E7032014
:10543800244B1A68D0075CBF01221A60224B1A68F5
:10544800D1075CBF01221A60204B1A68D2075CBFE3
:1054580001221A601E4B1A68D0075CBF01221A602D
:105468001C4B1A68D1075CBF01221A601A4B1A68D4
:10547800D2075CBF01221A60184B1A68D0075CBFBC
:1054880001221A60164B1A68D1075CBF01221A6004
:10549800144B1A68D2075CBF01221A60124B1A68B3
:1054A800D0075CBF01221A60104B1A68D1075CBF95
:1054B80001221A600E4B1A68D2075CBF01221A60DB
:1054C800704700BFA4E70320A0E703209CE7032060
:1054D80098E7032094E7032090E703208CE7032054
:1054E80088E7032084E7032080E703207CE7032084
:1054F80078E70320184B1A68D1075CBF01221A60AD
:10550800164B1A68D2075CBF01221A60144B1A683E
:10551800D0075CBF01221A60124B1A68D1075CBF22
:1055280001221A60104B1A68D2075CBF01221A6068
:105538000E4B1A68D0075CBF01221A600C4B1A6820
:10554800D1075CBF01221A600A4B1A68D2075CBFF8
:1055580001221A60704700BFC4E70320C0E7032098
:10556800BCE70320B8E70320B4E70320B0E7032033
:10557800ACE70320A8E70320094B70B51C68256C2D
:1055880006463DB91A20FFF70DF81A22206429466D
:1055980000F03FF9216C3046BDE8704000F002B8D9
:1055A8004CE3032010B50C4641690369826986B053
:1055B80001F26C710491016803914168029181685C
:1055C8000191C1680091074903EB43030B44064965
:1055D80002EB42020A4420460449FEF7FBFF20463C
:1055E80006B010BD9D630D0088630D00C1630D00FA
:1055F80010B5054C13462CB10A4601460220AFF3FC
:10560800008010BD204610BD0000000038B5074BD3
:105618001C68E36B05461BB92420FEF7C3FFE06353
:10562800E16B2846BDE8384000F002B84CE303209F
:105638002DE9F0410C46804600F094FC21460746CF
:10564800404600F093FC466906F26C76B3070446C0
:1056580005D1642296FBF2F302FB13634BB94FF4B6
:10566800C87596FBF5F305FB1365B5FA85F35B0979
:1056780000E001235F4A302505FB032500F0A6FA68
:1056880000F0A6FA5C4B1B68F3B17B689E4205D11B
:105698003968D8F80030FA6941B90AE0304600F0B4
:1056A800EDF90028F4D14FF0FF330DE0934208DB09
:1056B80001E0934207DABA6B9342ACBF002301239F
:1056C80002E0002300E001232362236A012B0CBFC0
:1056D800F96B396A4FF461633C2091FBF3F603FBE5
:1056E8001613616893FBF0F200FB12302368891AE5
:1056F800A26861601B1A921B3B2B2360A26003DD2A
:10570800013161603C3B04E0002B03DA0139616040
:105718003C33236063683B2B03DD0132A2603C3BD2
:1057280004E0002B03DA013AA2603C336360A3680B
:10573800172B22DDE2690132E261A2690132062AF1
:10574800C8BF0022A261E268183B0132A360236946
:10575800E26055F823108A4246DD01330C2B0CBF5A
:1057680063692361A2EB0102E26001BF01330022F9
:105778002261636108BFE26136E0002B34DAE26936
:10578800013AE261A269013A48BF0622A261E268D1
:105798001833013AE260A36032BB2369013B01D4AC
:1057A80023611DE00B23236163695A1E12F0030F66
:1057B800626103F26B7305D1642193FBF1F201FB83
:1057C80012324AB94FF4C87193FBF1F201FB12335C
:1057D800B3FA83F35B0900E0012303F5B673E361D1
:1057E800236955F82330E36000F0F1F92046BDE85D
:1057F800F08100BF48650D00E4E7032010B5431EA3
:105808000A44914204D011F8014B03F8014FF8E71C
:1058180010BD02440346934202D003F8011BFAE785
:105828007047000038B5124B1C68A36B0546D3B906
:105838001820FEF7B7FE43F20E33A06303804AF642
:10584800CD33438041F2342383804EF26D63C380AD
:105858004DF6EC630381052343810B2383810122E9
:105868000023C0E90423A36B00221D615A6138BDDF
:105878004CE30320194B10B51C68A36BD3B918204F
:10588800FEF790FE43F20E33A06303804AF6CD3351
:10589800438041F2342383804EF26D63C3804DF61A
:1058A800EC630381052343810B23838101220023B9
:1058B800C0E90423A16B0A4C0B694869094A5C4397
:1058C80002FB0040A3FB02230132034443F100031F
:1058D800C1E9042323F0004010BD00BF4CE30320BE
:1058E8002DF451582D7F954C10F8012B11F8013BE0
:1058F800012A28BF9A42F7D0D01A7047034611F8F8
:10590800012B03F8012B002AF9D17047034613F83D
:10591800012B002AFBD1181A0138704730B582B123
:10592800451E013915F8013F11F8014FA34206D170
:10593800EC431444E04201D0002BF3D11C46181B61
:1059480030BD104630BD10B5034642B111F8014BC9
:1059580003F8014B013A002CF7D11A4400E010BDBE
:10596800934202D003F8014BFAE710BD2DE9F04746
:1059780080463C48D0F800900E46354615F8014B55
:1059880009EB0400407800F0080000F0FF0708B1B8
:105998002E46F2E72D2C03D1B51C7478012703E0BD
:1059A8002B2C04BF7478B51C13B1102B0AD153E00B
:1059B800302C4FD1287800F0DF00582845D16C787A
:1059C800102302354FF0FF3C0026BCFBF3FC03FB21
:1059D8000CFA6FEA0A0A304609EB040E9EF801E059
:1059E8001EF0040F01D0303C0BE01EF0030E1AD05D
:1059F800BEF1010F0CBF4FF0370E4FF0570ECEEB34
:105A08000404A3420FDD002E08DB604506D801D14F
:105A1800544503DC03FB0040012601E04FF0FF364C
:105A280015F8014BD8E7002E07DA2223C8F8003012
:105A38004FF0FF302AB9BDE8F08707B1404272B194
:105A480006B1691E1160BDE8F0873024002BB9D17A
:105A58000823B7E70A23B5E7302CABD0B2E7BDE897
:105A6800F08700BFE8E2032013460A4601460248D1
:105A78000068FFF77BBF00BF4CE303202DE9F74F19
:105A8800044600F06FFA40F2B1739C4240F39680EE
:105A98006FF4F663E318A4F2B2729B1040F26D152E
:105AA80005FB0235A4F26D726FF0630392FBF3F30A
:105AB8006FF4C8622B44A5184FF4C87295FBF2F531
:105AC8001D44642394FBF2F794FBF3F602FB17479B
:105AD80003FB164600F13803B7FA87FE019304F07A
:105AE800030344604FEA5E1E014600934FF0070C23
:105AF8000B7A4A2B0ED14B69009AEC1802B906B9F9
:105B080027B93B2BD4BF0023012300E00023234403
:105B1800013B3FE0442B02D14B692B443AE0009B08
:105B28002BB9002E0CBFF0464FF0010800E0F046FC
:105B3800244BCC68302202FB0838A8F1040AA94695
:105B48000123A34204DA5AF804BF0133D944F8E721
:105B580009F1040393FBFCFBCBEBCB0A012CCAEB4A
:105B6800030A4B69B8BF012404F18044B3EB0A0A65
:105B78000B6904F1FF3403F1FF3348BF0AF1070A48
:105B8800C3EBC30358F824405344A34201DB073B4B
:105B9800FBE74B448C690C4A02FB03430C6A234421
:105BA80041F81C3F019B9942A2D1C369826B934281
:105BB800ACBF002301230360012000E0002003B0F4
:105BC800BDE8F08F48650D008051010070477047AF
:105BD800014B186800F002B84CE303202DE9F04FA0
:105BE8008DB0074600F0BEF9B049B14E04463846BC
:105BF80000F0B0F9054660B9AE4BAF4A1860AF4B3C
:105C08001860AF4B30681A605A60FEF7D3FC3560F5
:105C180048E1316879B93068FEF7CCFC2846FFF7CF
:105C280075FE411C3846FEF7EDFC306048B1294648
:105C3800FFF764FE05E0FFF757FE002800F0328109
:105C4800E9E72B789F4AA0493A2B08BF01350AAEED
:105C580033462846FEF7C6FC002840F323810A9BFA
:105C6800EF18EB5C2D2B03D101374FF0FF3503E024
:105C78002B2B08BF013701250DF1200A0DF11E0B52
:105C88004FF000080396CDF808A00196CDF800B0B3
:105C9800334607AA8D49ADF81E803846ADF82080F6
:105CA800FEF7A0FC404540F3FD80BDF81E20BDF87E
:105CB8002030DFF824923C2101FB0233BDF81C2080
:105CC8004FF4616101FB02335D4325627C4D7D4BDE
:105CD8002B600A9B7C491F444A4633463846FEF7E8
:105CE80081FC404508DC2B686B60724B226A1A60A5
:105CF800724BC3F80080D5E00A9BC5F80490FD18E4
:105D0800FB5C2D2B03D101354FF0FF3703E02B2B24
:105D180008BF013501270023ADF81C30ADF81E304F
:105D2800ADF820300A930396CDF808A00196CDF877
:105D380000B0334607AA65492846FEF753FC0028F9
:105D480004DC236AA3F56163E3630EE0BDF81E205B
:105D5800BDF820303C2101FB0233BDF81C204FF474
:105D6800616101FB02335F43E7630A9B27461D44D9
:105D78004FF000092B782C2B08BF013595F80080CF
:105D8800B8F14D0F26D10DF12603029309AB00930C
:105D98000396019633460DF122024D492846FEF737
:105DA80021FC03287ED1BDF822104B1E0B2B79D87D
:105DB800BDF82420531E042B74D8BDF82630062BBA
:105DC80070D887F80880F9603A617B610A9B05EB17
:105DD80003082AE0B8F14A0F06BF013543464423B9
:105DE8000A220BA928460593FFF73EFEDDF82C8012
:105DF800ADF826004545059B14D14D23B9F1000F98
:105E080007D123720323E36002232361C4F81490AB
:105E18000BE084F824300B23A3620123E362002300
:105E2800236302E080B23B7278610223ADF81C3034
:105E38000023ADF81E30ADF820300A9398F80030F2
:105E48002F2B0BD10396CDF808A00196CDF800B002
:105E5800334607AA1F494046FEF7C4FBBDF81E207B
:105E6800BDF820303C2101FB0233BDF81C204FF463
:105E7800616101FB0233BB610A9D09F10109B9F1B6
:105E8800020F454407F11C077FF474AF6068FFF701
:105E9800F5FD084B226A1A60E36B9B1A074A18BF84
:105EA800012313600DB0BDE8F08F00BFA8650D0099
:105EB800E0E70320E8E70320AB650D00E4E70320F3
:105EC80050E30320D3E70320AF650D00D2650D0032
:105ED800BE650D00D1650D00C8E703202DE9F84F18
:105EE80007468B46904600F0D9F8194B1D689A462C
:105EF8003DB15C46234613F8012B42B13D2A1C46AE
:105F0800F8D1384600F0CBF80020BDE8F88FCBEB8D
:105F18000404A94659F8040B0028F2D02246594631
:105F2800FFF7FCFC88B959F8043C1E191B5D3D2B92
:105F38000BD1DAF80030ED1AAD103846C8F8005029
:105F480000F0ADF8701CBDE8F88F4D46E1E700BFE2
:105F580098E3032007B501AAFFF7C0FF03B05DF877
:105F680004FB00000048704758E303200268474BD1
:105F7800F0B592FBF3F403FB1422002ABCBF02F530
:105F8800A83202F5C0724FF4616004F52F2492FB29
:105F9800F0F300FB13224FF03C00ACBF04F66C2476
:105FA80004F66B248B6092FBF0F300FB13224B602A
:105FB8000A600723E21C92FBF3F3C3EBC303D31A73
:105FC8008B61334B334D94FBF5F503FB054448F6E1
:105FD800AC62B4FBF2F2224440F2B457B4FBF7F3DC
:105FE800D21A2D48B4FBF0F048F69466131AB3FBA6
:105FF800F6F6344440F26D12B3FBF2F0B3FBF7F35C
:10600800E31A02FB1033992403EB83020232B2FB3A
:10601800F4F20A2A04FB02F404F102064FF0050424
:10602800B6FBF4F434BF02266FF0090616444FF4A9
:10603800C87202FB05055F1C012E98BF0135B3F538
:10604800997FA7EB040702D3A3F5997214E082079E
:1060580005D16424B0FBF4F204FB12024AB94FF4F0
:10606800C872B0FBF2F402FB1400B0FA80F25209D5
:1060780000E001223B331A44A5F26C750023CA6183
:106088004D610E61CF600B620846F0BD8051010082
:106098004FC5FDFFB13A0200B03A020070477047A1
:1060A8001D400D0059400D0085400D0089400D0030
:1060B80000000000426567696E6C696E53796E6313
:1060C800005468652063757272656E74206461742B
:1060D8006520616E642074696D652069732025737D
:1060E800200A005468652063757272656E742074A6
:1060F800696D65206973202573200A00000000007F
:10610800000000007B460D0071460D0067460D003B
:106118005D460D0051460D0045460D0039460D00FF
:1061280031460D0027460D001D460D0081510D001A
:10613800000000000000000099460D009B460D007D
:1061480066006C6E00666E00636F6465006465745B
:1061580061696C000D0A00253031307520005D2022
:10616800002564002C200028293A2000205B0063C9
:106178006F6465203D200025690064657461696C61
:1061880073203D2000626175640053657269616C1B
:106198000053657269616C310074797065007061D3
:1061A80072616D00636D6400696400686E640073F9
:1061B80074726D0066696C74006C766C006164645E
:1061C80048616E646C65720072656D6F76654861D2
:1061D8006E646C657200656E756D48616E646C65A1
:1061E8007273004A534F4E53747265616D4C6F67FA
:1061F80048616E646C657200617070006E6F6E65E8
:1062080000747261636500696E666F007761726E13
:10621800006572726F720070616E696300616C6C08
:1062280000252B3033643A253032750025592D2549
:106238006D2D25645425483A254D3A2553257A0075
:1062480061736374696D6500000000000000000060
:10625800074C0D00F94B0D00FB4B0D000000000032
:1062680000000000E14C0D00254D0D00FF4C0D0015
:1062780089480D00F94C0D00E34C0D00EB4C0D0066
:106288001F4D0D00F34C0D00DD4C0D00000000000B
:1062980000000000C94D0D00ED4D0D00F94D0D0039
:1062A80089480D00D54D0D00E14D0D00DB4D0D0069
:1062B800E74D0D00CB4D0D00CF4D0D000000000047
:1062C80000000000954E0D00DF4E0D00B74E0D008A
:1062D800974E0D00BF4E0D00C74E0D00CF4E0D005E
:1062E800D74E0D000000000000000000A54F0D0073
:1062F8009B4F0D00914F0D00874F0D007B4F0D00F8
:106308006F4F0D00634F0D005B4F0D00514F0D0097
:10631800474F0D0081510D000000000000000000F3
:10632800FB500D00F1500D00E7500D009D500D0081
:10633800DB500D00CF500D00C3500D00BB500D00B9
:10634800B1500D00A7500D0081510D000000000054
:106358000000000019510D0023510D002D510D00B2
:1063680037510D0041510D004D510D0059510D008F
:1063780065510D006D510D0077510D0081510D00D3
:1063880053756E4D6F6E54756557656454687546E0
:1063980072695361744A616E4665624D61724170FB
:1063A800724D61794A756E4A756C417567536570AF
:1063B8004F63744E6F76446563252E337320252E04
:1063C800337325336420252E32643A252E32643AFD
:1063D800252E32642025640A000020202020202059
:1063E800202020282828282820202020202020207D
:1063F800202020202020202020208810101010107D
:1064080010101010101010101010040404040404CC
:1064180004040404101010101010104141414141AF
:106428004101010101010101010101010101010114
:1064380001010101011010101010104242424242A5
:1064480042020202020202020202020202020202E4
:1064580002020202021010101020000000000000CA
:106468000000000000000000000000000000000024
:106478000000000000000000000000000000000014
:106488000000000000000000000000000000000004
:1064980000000000000000000000000000000000F4
:1064A80000000000000000000000000000000000E4
:1064B80000000000000000000000000000000000D4
:1064C80000000000000000000000000000000000C4
:1064D80000000000000000000000000000000000B4
:1064E80000000000000000000000000000000000A4
:1064F8000000000000000000000000000000000094
:106508000000000000000000000000000000000083
:106518000000000000000000000000000000000073
:106528000000000000000000000000000000000063
:106538000000000000000000000000004300000010
:106548001F0000001C0000001F0000001E000000CB
:106558001F0000001E0000001F0000001F000000B8
:106568001E0000001F0000001E0000001F000000A9
:106578001F0000001D0000001F0000001E0000009A
:106588001F0000001E0000001F0000001F00000088
:106598001E0000001F0000001E0000001F00000079
:1065A800545A00474D54002531305B5E302D392C4C
:1065B8002B2D5D256E004D256875256E2E25687579
:1065C800256E2E256875256E002F256875256E3A6F
:1065D800256875256E3A256875256E00FF410D0002
:1065E80085460D00D1460D00D9490D00D14A0D0050
:1065F800094B0D0051500D0005510D004D520D0075
:1066080061520D00F1520D0075530D0039540D0003
:08661800FD540D00000000001C
:1066200048620D00E1630D0000000000E4640D000D
:1066300004650D0024650D0000000000000000004E
:10664000000000000000000044650D000000000094
:10665000000000000000000000000000000000003A
:10666000000000000000000000000000000000002A
:10667000000000000000000000000000000000001A
:106680000000000000000000ECE20320AB650D00FC
:10669000AB650D0001000000000000004A00000092
:1066A00000000000000000000000000000000000EA
:1066B00000000000000000004A0000000000000090
:1066C00000000000000000000000000000000000CA
:0866D00000000000ECE70320CC
:1066D800FFFFFFFF00000102030405060708090A7F
:1066E8000B0C0D0E0F101112131415161718191A7A
:0866F8001B1C1D1E1F202800C1
:046700007856341281
:04000003D0004018D1
:00000001FF
