:02000002D0002C
:1040000000400D00507F0D00000006000C0005016F
:0840100004014E040000000051
:10401800506F0D0009480A49884208B505D0094A79
:10402800824202D0121A02F03DFB0748074A0021DB
:10403800121A02F042FB014808BD00BFB0DE03209F
:10404800607A0D0078E3032078E30320F0E703208B
:1040580070B501F07FFC074C074BE41AA408002553
:104068001E46A54204D056F8253098470135F8E792
:1040780070BD00BF547A0D00147A0D0000F036B8F8
:1040880008B500F025F9BDE8084001F031BC01F0A1
:10409800E9B801F0E7B8000008B5034A00210C2090
:1040A80001F01CF8FEE700BFA54E0D000078B0FA3D
:1040B80080F040097047012303707047704708B5C6
:1040C800002001F0AFF810B101F09CF858B90020B9
:1040D80001F0A8F828B101F095F880F00100C0B20D
:1040E80008BD012008BD01F085F8E9E708B501F031
:1040F8000DFD4FF4165101F0F7FC02F023F801F022
:10410800D3FD01F003FD01F0F6FC0028F9D001F021
:10411800FDFC084901F0B5FA3C220221064800F0EE
:104128002BFB054800F06EFC0348BDE8084000F092
:10413800F3BB00BF646F0D007CE3032038B5204C4F
:104148000546204600F05EFC204600F0E5FB002214
:1041580011462046012300F06DFA20460123002273
:104168007F2100F067FA204601233F22002100F05A
:1041780061FA01233F2220467F2100F05BFA2046A6
:10418800012100F001FE2046012100F002FE1E225E
:1041980020461B2100F0F5FD2946204601F05EFA75
:1041A8004FF47A7001F066FB204600F0B5FB4FF43F
:1041B8007A7001F05FFB2046BDE8384000F0ACBBE8
:1041C8007CE3032070B594B03D4905A801F097F948
:1041D8003B4909A801F093F9B9EE080A01F0DAFAA7
:1041E80000F064FE14AC06460025002001F012F829
:1041F800FFF765FF44F81C5D2946204601F01AF8D0
:10420800B04254D301F025FB0146204601F0DEFA06
:10421800214605A801F0A3F9204601F029F9132346
:104228000B2205A9204601F0CBF9214609A801F087
:1042380096F9204601F01CF901F068FC059901F097
:1042480020FA01F063FC099901F01BFA2B461922A8
:10425800214605A801F09CF92B46092202A909A8C4
:1042680001F096F901F052FC2346164A294601F05E
:1042780041FA01F04BFC02AB134A294601F03AFA25
:10428800284600F0C7FFFFF71AFF14A8294640F890
:104298004C5D00F0CFFFB04209D301F037FC02AB10
:1042A8000A4A012101F026FA2046FFF747FF09A82C
:1042B80001F0DEF805A801F0DBF814B070BD00BF0E
:1042C8008E750D00716F0D00936F0D00AC6F0D00B2
:1042D80008B5FFF777FF4EF6602142F2107001F043
:1042E80006FDBDE8084001F0C5BA10B50446FFF761
:1042F800CEFE204610BD000010B5074C00F066FD4C
:104308004FF0FF31204600F0DFF92046034A044908
:10431800BDE8104001F036BF7CE3032078E30320BA
:10432800C5400D00F0B5447EBDF81450022C08D0ED
:10433800032C0FD0012C70D10489013CA21A12B2AF
:104348000CE04489013CA21A0489E41A611A12B2E9
:1043580009B262E04489E41A611A09B2002A5BDBF7
:10436800B0F90840944240F390800029BEBF5B1822
:104378001BB20021B0F90A00CC188442C4BF431A0A
:104388001BB2002B40F38180C9B2C8083F4F02EB33
:10439800C01211F00701DBB207EB020417D0C1F11C
:1043A8000801C8B23A4983420E5C3FBFC3EB000E16
:1043B800FF2141FA0EF10E40B95C012D0CBF3143CB
:1043C800B1438342B95460D3181AC3B28034072B5F
:1043D80017D9012D0CBFFF20002004F180011A46D7
:1043E800083AD2B2072A01F8800C01F18001F7D807
:1043F800A3F10802C2F3C402013204EBC21403F0B1
:104408000703002B41D0234AD25C2378012D0CBF2F
:10441800134393432370F0BDF0BD002A35DBB0F998
:104428000A40944231DD0029BCBFC9180BB2B0F96B
:104438000870B8BF0021CE18BE42C4BF631A1BB2B1
:10444800002B22DDD01001EBC011104802F007024A
:104458000144012000FA02F28542D2B209D1013B9F
:104468001BB25C1C11D011F8010B104301F8010CB0
:10447800F5E7D243D2B2013B1BB2581C05D011F864
:10448800010B104001F8010CF5E7F0BDC0DE032078
:10449800B8DE0320B0DE0320F0B5447EBDF814502A
:1044A800022C08D0032C0FD0012C12D10489E41A55
:1044B800A21A12B26DE00489013C611A4489E41A17
:1044C800A21A09B212B204E04489013C611A09B285
:1044D8005FE000295CDBB0F908408C4240F3918032
:1044E800002ABCBFD21813B2B0F90A00B8BF002224
:1044F800D4188442C4BF831A1BB2002B40F38180B6
:10450800D4B2404EDAB2E30801EBC31114F0070449
:1045180006EB010317D0C4F10804E0B23A4C82421A
:10452800275C3FBFC2EB000EFF2444FA0EF427407D
:10453800745C012D0CBF3C43BC438242745460D36D
:10454800101AC2B28033072A17D9012D0CBFFF24D5
:10455800002403F1800011460839C9B2072900F880
:10456800804C00F18000F7D8A2F10801C1F3C40122
:10457800013103EBC11302F00702002A41D023499D
:10458800895C1A78012D0CBF0A438A431A70F0BD62
:10459800F0BD002935DBB0F90A408C4231DD002A34
:1045A800BCBFD21813B2B0F90870B8BF0022D61831
:1045B800BE42C4BFA31A1BB2002B22DDC81002EBF7
:1045C800C012104801F007011044012202FA01F15B
:1045D8009542C9B209D15A1E13B25C1C11D010F809
:1045E800012B0A4300F8012CF5E7C943C9B25A1E4A
:1045F80013B25A1C05D010F8012B0A4000F8012C00
:10460800F5E7F0BDC0DE0320B8DE0320B0DE0320EE
:1046180010B42AB1194606485DF8044B00F012BFE1
:104628000122C9B2C0B25DF8044B01F045BD00BF1C
:10463800ECE60320F8B50D1E064614461F463FDB80
:1046480000F0ACFB85423BDA002C39DB304600F049
:10465800A8FB844234DA304600F09EFB022827D1BA
:104668003189708901390138491B001B0DB204B228
:1046780006E0012804D13389013B1B1B2C461DB2DF
:104688000820012F94FBF0F000B20E4B04F0070253
:1046980005EBC01104D197405A5C17435F54F8BD2D
:1046A800585C012707FA02F220EA02025A54F8BDC0
:1046B8000328DED17389013B5B1B25461CB2DFE76B
:1046C800F8BD00BFC0DE032038B5402204460D46C1
:1046D800802100F077FA064B2360FF23637784F884
:1046E8002130E377A37784F82050204638BD00BFF7
:1046F800C86F0D0038B590F91D30013304460D46DA
:1047080022D090F92100012180B201F0BCFC94F97B
:104718001F00002180B201F0B6FC94F921000021AD
:1047280080B201F0B0FC94F91E1094F91D0094F8C1
:1047380022202B46FFF76CFF94F92100012180B25B
:10474800BDE8384001F09FBC01F0FCFC94F91B1057
:1047580001F0B4FA01F0F6FC036800219B68984761
:1047680001F0F0FC036829469B68984701F0EAFCD1
:10477800BDE8384001F0A9BA38B504460D4621779E
:1047880090F91D30C276013333D090F91F00012112
:1047980080B201F067FC94F92100012180B201F098
:1047A80061FC94F822305BB994F91D00012180B2B4
:1047B80001F058FC94F91E00012180B201F052FC6E
:1047C80094F82230CBB194F92100012180B201F094
:1047D8005AFC01214F4800F0D4FD10214D4800F04B
:1047E8001DFE00214B4800F0CFFD4A4800F0C4FDF3
:1047F80003E001F0A7FC01F057FA94F92000012129
:1048080080B201F02FFC94F92000012180B201F060
:104818003AFC012001F02EF894F92000002180B222
:1048280001F031FC0A2001F025F894F9200001215B
:1048380080B201F028FC2046AE21FFF75BFF20463E
:10484800D521FFF757FF20468021FFF753FF204669
:10485800A821FFF74FFF20463F21FFF74BFF2046D7
:10486800D321FFF747FF20460021FFF743FF2046EB
:104878004021FFF73FFF8D212046FFF73BFF012D29
:104888000CBF102114212046FFF734FF20462021B9
:10489800FFF730FF20460021FFF72CFF2046A1211B
:1048A800FFF728FF2046C821FFF724FF2046DA211A
:1048B800FFF720FF20461221FFF71CFF8121204629
:1048C800FFF718FF012D0CBF9F21CF212046FFF7CE
:1048D80011FFD9212046FFF70DFF012D0CBF222122
:1048E800F1212046FFF706FF2046DB21FFF702FFF4
:1048F80020464021FFF7FEFE2046A421FFF7FAFEDE
:104908002046A621FFF7F6FE2046AF21BDE8384035
:10491800FFF7F0BEECE603202DE9F0412121044623
:10492800FFF7E8FE00212046FFF7E4FE7F2120463E
:10493800FFF7E0FE22212046FFF7DCFE002120469B
:10494800FFF7D8FE07212046FFF7D4FE94F91D3063
:10495800DFF8AC8001332ED094F92100012180B218
:1049680001F091FB94F91F00012180B201F08BFB4B
:1049780094F92100002180B201F085FB012000F0AC
:104988008DFA002518F8053094F8222094F91E10A5
:1049980094F91D000135FFF73BFEB5F5806FF1D1A5
:1049A800012000F07BFA94F92100012180B2BDE8D2
:1049B800F04101F068BB002501F0C4FB94F91B101D
:1049C80001F07CF901F0BEFB036840219B68984721
:1049D800002601F0B7FBAF190368BFB29B6818F84F
:1049E800071001369847102EF3D1103501F0AAFBB5
:1049F800ADB201F06AF9B5F5806FDDD1BDE8F0819F
:104A0800C0DE03204FF480620021014801F055BE4A
:104A1800C0DE032000F0DAB92DE9F04F85B01E465C
:104A2800BDF93830BDF83CA015469A1A002AB8BF1F
:104A380052420092721A002AB8BF524201920C46A2
:104A4800009A01998A42814605DD32461E46134680
:104A580022462C461546B44205DD2A461D46134615
:104A68002246344616465A1B002AB8BF5242C4EBA7
:104A780006089D42B4BF01234FF0FF331FFA88F8A0
:104A8800029303920FFA88F7022297FBF2F7B442D7
:104A98001FDC019A009B9342D9F80030C8BF224618
:104AA800D3F810B0C8BF29465346DCBF2A46214672
:104AB8004846D847039BFF1ABBB21FB2002F05DA3E
:104AC800029A08EB030715442DB23FB2013424B211
:104AD800DDE705B0BDE8F08F2DE9F347BDF82C60A0
:104AE8000768BDF928A000960446FF6991460D465F
:104AF8009846B847236800960AF1FF324A44DF69AE
:104B080029464346204612B2B847236800969F6953
:104B18004A46534629462046B84723680A9608F16C
:104B2800FF3129449D694A46534609B22046AC469E
:104B380002B0BDE8F047604737B5013B134404684D
:104B4800BDF8185001951BB2009364690B46A04745
:104B580003B030BD37B5BDF8185004688DE824009F
:104B6800013B0B4464691BB2A04703B030BD2DE97B
:104B7800F347BDF92880BDF82C90054617460C462A
:104B880001EB030A54450BDA2B68CDF800909E69B7
:104B9800214643463A4628460134B04724B2F1E755
:104BA80002B0BDE8F08713B5B0F90E200468019192
:104BB80000920022B0F90C30646A1146A04702B096
:104BC80010BD704730B501810024084D42818181B4
:104BD800C2814FF6FF710122446005604476048269
:104BE80044820276C1828182827630BD00700D00D7
:104BF8002DE9F04F8FB005460691BDF8601007917A
:104C0800BDF864100891B0F90C1006989DF86880FA
:104C180081427CDDB5F90E10914278DD062111FB49
:104C28000800002873DD02EBC80000286FDD03EBE5
:104C3800830396B20C9306F108039BB209910024F2
:104C48000D93052C1CBF334B0C9A059616BF1B19E8
:104C58004FF0000913F8029004961FFA88F30393A3
:104C6800039ABDF8183004FB023213FA84F312B227
:104C78001BB20A9237460FFA88FA0B9319F0010F04
:104C880011D0B8F1010F2B6803D1D3F810B0079BEE
:104C980014E0079A0192CDF800A0D3F824B0BDF92A
:104CA8001020534618E0079B089A934217D0B8F192
:104CB800010F2B6807D1D3F810B013463AB20B99FD
:104CC8002846D8470BE0089A0192CDF800A0BDF914
:104CD8001420D3F824B053460A992846D847049B91
:104CE800039A13449BB20493059B13449BB2013768
:104CF80005930D9BBFB29F424FEA5909BED1099B4C
:104D0800013B013413F0FF0364B2099399D10FB04A
:104D1800BDE8F08F30700D0030B50A2985B0044623
:104D28000B4604D1027E438A03EBC20323E00D291C
:104D380024D0057EB0F91220B0F910100295C58A6A
:104D48000195858A0095FFF753FF227E238A91B249
:104D580001EB410003EB4003A07E1BB2238268B144
:104D6800B4F90C006FF0050505FB0202934205DD5E
:104D7800638A03EBC103638200232382012005B009
:104D880030BD018242827047002908BF01210176A7
:104D98007047C18281827047407E7047B0F90C002D
:104DA8007047B0F90E00704700F010B808B5024B14
:104DB8001B689B68019308BD6802030008B5024B95
:104DC8001B68DB68019308BD6802030008B5024B45
:104DD8001B681B68019308BD2C02030008B5024B31
:104DE8001B689B68019308BD2C02030008B5024BA1
:104DF8001B68DB68019308BD2C02030008B5024B51
:104E08001B681B69019308BD2C02030008B5024BFF
:104E18001B681B68019308BD3002030008B5024BEC
:104E28001B689B68019308BD3002030008B5024B5C
:104E38001B68DB68019308BD3002030008B5024B0C
:104E48001B681B69019308BD3002030008B5024BBB
:104E58001B685B69019308BD3002030008B5024B6B
:104E68001B68DB69019308BD3002030008B5024BDB
:104E78001B681B6A019308BD3002030008B5024B8A
:104E88001B685B6A019308BD3002030008B5024B3A
:104E98001B685B68019308BD1802030008B5024B44
:104EA8001B68DB68019308BD1802030008B5024BB4
:104EB8001B685B69019308BD1802030008B5024B23
:104EC8001B68DB69019308BD1802030008B5024B93
:104ED8001B689B6D019308BD1802030008B5024BBF
:104EE8001B689B68019308BD4802030008B5024B84
:104EF8001B681B69019308BD4802030008B5024BF3
:104F08001B685B69019308BD4802030008B5024BA2
:104F18001B681B6B019308BD4802030008B5024BD0
:104F28001B685B6C019308BD4802030008B5024B7F
:104F38001B685B69019308BD6402030008B5024B56
:104F48001B681B68019308BD3C02030008B5024BAF
:104F58001B68DB68019308BD3C02030008B5024BDF
:104F68001B681B69019308BD3C02030008B5024B8E
:104F78001B685B69019308BD3C02030008B5024B3E
:104F88001B689B69019308BD3C02030008B5024BEE
:104F98001B68DB69019308BD3C02030008B5024B9E
:104FA8001B681B6A019308BD3C02030008B5024B4D
:104FB8001B689B6A019308BD3C02030008B5024BBD
:104FC8001B68DB68019308BD2802030008B5024B83
:104FD8001B689B69019308BD2802030008B5024BB2
:104FE8001B68DB69019308BD2802030008B5024B62
:104FF8001B681B6A019308BD2802030008B5024B11
:105008001B685B6A019308BD2802030008B5024BC0
:105018001B689B6A019308BD2802030008B5024B70
:105028001B68DB6A019308BD2802030008B5024B20
:105038001B681B6B019308BD2802030008B5024BCF
:105048001B685B6B019308BD2802030008B5024B7F
:105058001B681B6C019308BD2802030008B5024BAE
:105068001B681B68019308BD4C02030008B5024B7E
:105078001B685B68019308BD4C02030008B5024B2E
:105088001B681B69019308BD4C02030008B5024B5D
:105098001B685B69019308BD4C02030008B5024B0D
:1050A8001B689B69019308BD4C02030008B5024BBD
:1050B8001B68DB69019308BD4C02030008B5024B6D
:1050C8001B681B6A019308BD4C02030008B5024B1C
:1050D8001B685B6A019308BD4C02030008B5024BCC
:1050E8001B685B6B019308BD6002030008B5024BA7
:1050F8001B681B68019308BD2002030008B5024B1A
:105108001B685B68019308BD2002030008B5024BC9
:105118001B685B69019308BD2002030008B5024BB8
:105128001B689B6D019308BD2002030008B5034B63
:105138001B68D3F88830019308BD000020020300E3
:1051480008B5034B1B68D3F89430019308BD0000E1
:105158002002030008B5024B1B685B68019308BD79
:105168004002030008B5024B1B689B68019308BD09
:105178004002030008B5024B1B68DB68019308BDB9
:105188004002030008B5024B1B681B69019308BD68
:105198004002030008B5024B1B685B69019308BD18
:1051A8004002030008B5024B1B689B69019308BDC8
:1051B8004002030008B5024B1B68DB69019308BD78
:1051C8004002030008B5024B1B681B6A019308BD27
:1051D8004002030008B5024B1B681B6B019308BD16
:1051E8004002030008B5024B1B685B6B019308BDC6
:1051F8004002030008B5024B1B689B68019308BD79
:105208004402030008B5024B1B685B69019308BDA3
:105218004402030008B5024B1B68DB6A019308BD12
:105228004402030008B5024B1B681B6B019308BDC1
:105238004402030008B5024B1B685B6B019308BD71
:105248004402030008B5024B1B68DB6B019308BDE1
:105258004402030008B5024B1B681B68019308BD94
:105268001C02030008B5024B1B685B68019308BD6C
:105278001C02030008B5024B1B689B68019308BD1C
:105288001C02030008B5024B1B681B69019308BD8B
:105298001C02030008B5024B1B689B69019308BDFB
:1052A8001C02030008B5024B1B685B6A019308BD2A
:1052B8001C02030008B5024B1B681B6B019308BD59
:1052C8001C020300002211464068FFF77BBF002242
:1052D80011464068FFF786BF00224068FFF77ABF93
:1052E800002281F001014068FFF764BF00231A46DD
:1052F80019464068FFF756BF00231A46194640680A
:10530800FFF748BF002211464068FFF73BBF002265
:1053180011464068FFF726BF002202214068FFF7C8
:1053280029BF00231A464068FFF714BF024B032227
:105338005A60024A1A607047A0E3032034750D00D2
:10534800704710B50446FEF7A2FE204610BD0000C7
:1053580070B5084B0360044600250E4640F80C5F04
:10536800FFF7D4FD30462671FFF778FDA56020468B
:1053780070BD00BF68750D004FF6FF710079FFF72B
:1053880045BD0079FFF74ABD0079FFF74FBD000022
:10539800054A0023995C814202D00133082BF9D1D8
:1053A800581CC0B2704700BF70750D00400830B57A
:1053B8001860002418688842E5B206D90134082C20
:1053C80002D040081860F5E70725024B5B5D1370B3
:1053D80030BD00BF70750D0070B588B0067902FB4E
:1053E80001F504461422002103A801F066F90B23F5
:1053F80003A930460022ADF80C30FFF73FFD02ABA1
:105408000DF1070229460498FFF7D0FF20799DF88F
:105418000710FFF713FD029808B070BD38B50446B1
:105428000846A5684DB1FFF7B3FF012225FA00F140
:105438002046BDE83840FFF7CFBF2079BDE83840A7
:10544800FFF7FCBC08B50079FFF700FDC0B208BD46
:105458000079FFF70BBD0000044B00204FF6FF72E8
:10546800187058809A80FFF749BE00BFA8E3032050
:1054780010B504460068FFF7F5FE204610BD10B5CC
:105488000446006808B1FFF7EDFE00232360A3601F
:10549800636010BD38B504460D4600680131FFF75A
:1054A800E9FE10B184E82100012038BD10B5036879
:1054B800044613B143688B4207D22046FFF7EAFF40
:1054C80020B1A3680BB922681370012010BD70B514
:1054D8000E46114604461546FFF7E8FF18B9204660
:1054E800FFF7CDFF09E02A463146A560206801F0A4
:1054F800D9F82268A3680021D154204670BD38B578
:105508000023044603604360836003730D4639B18A
:10551800084601F04FF9294602462046FFF7D7FF13
:10552800204638BD38B5054600680C4660B16A6843
:105538008B689A4206D3096801F034F9A368AB6016
:1055480000230AE0FFF78EFE23682B6063686B6018
:10555800A368AB60002323606360A36038BD884202
:1055680010B5044601D0FFF7DDFF204610BD38B561
:1055780005460C4641B1084601F01CF92146024691
:105588002846FFF7A4FF01E0FFF779FF284638BD5A
:1055980070B50E469AB191B185689D4202D8002334
:1055A8000B7070BD541EED1A0168AC4228BF2C4622
:1055B80019442246304601F01AF90023335570BDCC
:1055C8002DE9F0419A420E461C46104988BF134601
:1055D8001546074684BF25461C46FFF790FFB1686D
:1055E8008D420FD88C4228BF0C463368002213F82E
:1055F80004801A55316838462944FFF7B8FF3368E4
:1056080003F804803846BDE8F08100BF8E750D00B0
:10561800F8B506460D468F180024BD420CD03368F5
:1056280015F8011B9B6830469847002801DB0444A5
:10563800F3E7002C08BF04462046F8BD70B50546C0
:105648000C46084649B101F0B5F82B6802462146D8
:105658002846DB68BDE87040184770BD08B5FFF7FD
:10566800EDFF08BD03689B68184738B50D2105464E
:10567800FFF7F8FF0A2104462846FFF7F3FF204406
:1056880038BD38B50546FFF7D9FF04462846FFF769
:10569800ECFF204438BD30B58BB00B4600218DF8A7
:1056A8002410012A98BF0A220DF12304B3FBF2F556
:1056B80005FB123303F0FF03092B94BF3033373354
:1056C800DBB2214604F801392B46002DEED1FFF755
:1056D800B5FF0BB030BD10B42AB903685DF8044BB0
:1056E8009B68C9B21847D2B25DF8044BFFF7D3BF25
:1056F800FFF7F1BF0CB42DE9F04387B000AF07F115
:105708003804054654F8049B3C600E4623464A4636
:105718001421381DFFF7C6FD132805D8391D284662
:10572800FFF78CFF044613E000F1080323F007039A
:10573800E846ADEB030D411C23464A4668463C60EB
:10574800FFF7B0FD69462846FFF778FF0446C546CF
:105758001EB12846FFF789FF044420461C37BD4682
:10576800BDE8F04302B07047014B024A1A60704727
:10577800B0E3032030760D0008B50020FFF752FD96
:1057880028B1FFF73FFD80F00100C0B208BD01203D
:1057980008BD0000FAEE087AB4EEE70AF1EE10FA56
:1057A8000FD4F2EE0C7AB4EEE70AF1EE10FA08DC48
:1057B800DFED047A044B20EE270ABDEEC00A83ED24
:1057C800000A704700006145BCE3032037B50E4B63
:1057D8001B6819440D4B1B68044602A8194440F87D
:1057E800041D00F067FE00F01BFE054600F0E2FF16
:1057F8002844002300F8013C29462046FFF77FFE95
:10580800204603B030BD00BFBCE30320B8E303204B
:1058180010B50020FFF75AFB044668B9FFF766FC8D
:1058280001280BD12046FFF779FC38B9FFF7A4FF10
:1058380030B9FFF7DFFCF9E7012010BD002010BDEB
:10584800FFF79AFF0020FFF741FB003018BF012047
:1058580010BD08B5FFF7DCFFBDE80840FFF72EBB19
:10586800024B1A68024B1A60704700BFC0E203205F
:10587800B4E303200021FFF749BC10B58368044650
:1058880013B1032201469847204610BD10B50446BF
:10589800FFF7F3FF204610BD0348044A04490023DC
:1058A800836000F06FBC00BFC0E3032078E30320EF
:1058B80095580D0008B50C4B33B100F027F9036873
:1058C8001B699847002809DC084B63B100F088F988
:1058D80003681B699847002803DC08BDAFF3008004
:1058E800F2E7AFF3008008BD0000000000000000F0
:1058F80008B5FFF7DFFFFFF7D9FA014B186008BDBD
:105908000CE7032007B5002300931A466FF07701D0
:10591800FFF716FC03B05DF804FB000007B54388E9
:105928000A2B08D0502B09D1094B1B683BB103B097
:105938005DF804EB1847FFF7E5FF06E00023009346
:105948001A466FF07701FFF7FBFB03B05DF804FB25
:10595800D0E3032010B5FFF799FA044600F0B6FE2D
:10596800074B13B12046AFF3008000210448FFF72E
:1059780069FC00210348BDE81040FFF7D7BB00BF12
:105988000000000025590D00704710B50446FEF7C9
:105998007EFB204610BDF0B5037D062B8DB00E466C
:1059A80000F104074FF0000402D000F1080518E0E8
:1059B8000CAD394605F8304D2F232A460A20FFF74B
:1059C800B5FA284600F0F6FE33680246DB68294639
:1059D800304698470FE024B12E213046FFF742FEAB
:1059E800044415F8011D0A223046FFF781FEBD4226
:1059F8000444F0D120460DB0F0BD000010B5054BB1
:105A08000446112240F8043B002100F056FE2046CF
:105A180010BD00BF88760D000346074A10B543F84D
:105A2800042B01F1100251F8044B43F8044B914246
:105A3800F9D10A781A7010BD88760D0010B59DF856
:105A4800084044EA032343EA024242EA016104238C
:105A58004160037510BD37B50D788B784A78C978E1
:105A680000912946FFF7EAFF03B030BD4174704743
:105A780070470021007CFFF711BB0121007CFFF774
:105A88000DBB007CFFF702BB007CFFF7F7BA38B507
:105A98000446007C0D46FFF7F9FA002801DC607C1B
:105AA80020B12946207CFFF701FB012038BD007C8E
:105AB800FFF704BB10B50446FEF7E9FA204610BD0F
:105AC80010B50446002363604FF47A73A360054B56
:105AD800236001230846217463741146FFF7BEFA58
:105AE800204610BD9C760D000022007CFFF7BEBA50
:105AF800007CFFF7EBBAFFF7FBBF10B51422044692
:105B0800002100F0DAFD204610BD000030B50E4D32
:105B180087B001A8FFF7F1FF296811F0010410D13F
:105B28002846FEF7C3FA60B101AA21460748FFF7E5
:105B3800C7FF2846FEF7BFFA054A0649034800F0A2
:105B480021FB024807B030BDD4E30320D8E303208B
:105B580078E30320795A0D00704741747047007C40
:105B6800FFF724BA007CFFF7F9B9007CFFF706BA03
:105B7800007CFFF7FBB9007CFFF708BA10B50446B4
:105B8800FEF785FA204610BD70B5457C04460E46E2
:105B980025B9007CFFF70AFA002805DD3146207C8C
:105BA800BDE87040FFF7D2B9284670BD10B504466D
:105BB80008461146002262604FF47A72A260054AD4
:105BC80022600122207462741A46FFF7B7F9204652
:105BD80010BD00BFCC760D00007CFFF7DFB90000D8
:105BE80038B50C4D296811F0010411D12846FEF78B
:105BF8005DFA68B1084A094B09482146FFF7D6FF04
:105C08002846FEF758FA074A0749054800F0BAFA45
:105C1800034838BD84E4032088E4032000E403201B
:105C2800ECE3032078E30320615B0D007047F8B5CF
:105C3800064615460C468F18BC4206D0336814F841
:105C4800011B9B6830469847F6E72846F8BD0022B6
:105C5800007CFFF7CBB90021007CFFF7CFB900210A
:105C6800007CFFF7D3B90021007CFFF7D7B90021EA
:105C7800007CFFF7DBB910B50446FEF708FA2046AA
:105C880010BD000010B504464FF47A730846A360AF
:105C98000021044B207461602360FFF7D7F9204688
:105CA80010BD00BFFC760D0000231A461946007C83
:105CB800FFF784B90022007CFFF788B9C9B2FFF763
:105CC800F9BF0022007CFFF789B90121FFF7F9BF6E
:105CD8000021007CFFF7B2B910B5044630B100F0DE
:105CE8001DFD90FBF4F303FB140010BD10BD8842AA
:105CF80010B5044604DA081AFFF7EEFF204410BD79
:105D080010BD002211464068FFF75CBA0022114618
:105D18004068FFF767BA00224068FFF75BBA0022C5
:105D280081F001014068FFF745BA00231A46194679
:105D38004068FFF737BA00231A4619464068FFF74C
:105D480029BA002211464068FFF71CBA0022114602
:105D58004068FFF707BA002202214068FFF70ABA35
:105D680000231A464068FFF7F5B938B5054678B1FB
:105D7800046844B1A3681BB1032221462046984712
:105D88002046FEF784F92846BDE83840FEF77FB97B
:105D980038BD10B103685B681847704710B50368D1
:105DA8000446BBB15868FFF799F878B923685A7C5C
:105DB80012B95868FFF79AF823685868FFF79EF8F1
:105DC80020680023236028B1FFF7CFFF206808B1BF
:105DD800FFF7CBFF204610BD38B50B4B03600446D8
:105DE800D0F8CC0108B1FEF754F9D4F8C4512DB15C
:105DF8002846FFF7D3FF2846FEF749F9A06808B1FF
:105E0800FFF7C7FF204638BD24770D0038B50D4C85
:105E18000D4B23600025022304F5E4706360A56040
:105E2800C4F8C451C4F8C851FFF778F8074BC4F850
:105E3800CC5123602046064A0649BDE8384000F0A8
:105E4800A1B900BF0CE503208C770D0024770D0065
:105E580078E30320E15D0D00002211464068FFF75A
:105E680091B9002211464068FFF7ACB900221146EB
:105E78004068FFF7B7B900224068FFF7ABB90022C6
:105E880081F001014068FFF795B900231A461946C9
:105E98004068FFF787B900231A4619464068FFF79C
:105EA80079B9002211464068FFF75CB90022022147
:105EB8004068FFF75FB900231A464068FFF74AB900
:105EC800024B04225A60024A1A607047DCE603203B
:105ED80058770D0000231A464068FFF73BB90022A7
:105EE80002214068FFF746B9002211464068FFF7D3
:105EF80039B9002211464068FFF744B900231A4611
:105F080019464068FFF746B900231A461946406803
:105F1800FFF748B9002281F001014068FFF74AB94C
:105F280000224068FFF756B9002211464068FFF783
:105F380059B9002211464068FFF744B92DE9F043EA
:105F4800002495B016460D460746FFF757FD214633
:105F580020220CA8009400F0B0FB40230C932146AB
:105F68006B460CAA3046FEF729FF0446002844D1A8
:105F7800024601216868FFF705F90221804622469A
:105F88006868FFF7FFF8009E81462146002E34D04E
:105F9800002932D17368022B02D00A2B09D02AE0DB
:105FA800B8F1000F27D0716938460431FFF753FD67
:105FB80020E0B9F1000F1ED07469112201A800F089
:105FC8007CFB06238DF8143001AD04F10803183466
:105FD800186859682A4603C20833A3421546F7D100
:105FE80001A906A807ADFFF717FD0FCD3C1D0FC48B
:105FF8002B6823700121F669C8E70098FEF7D6FEE2
:10600800384615B0BDE8F083024B034A1A600022F7
:106018005A607047E4E603208C770D0010B50446FB
:106028000F48FFF715FA28B1A4F10B03022B01D88A
:10603800002010BD00F086F8FFF74AFE08B1012CD9
:10604800F6D9FFF7CDFDFFF7C7FD18B1A4F1090395
:10605800012BEDD9232C8CBF0020012010BD00BFDF
:10606800ECE60320232838B504460D460AD8FF2954
:1060780008D0FFF7D3FF28B129462046BDE83840AD
:10608800FEF7ACBE38BD38B504460D46FEF7AEFE89
:10609800FF2810D0062804D84D2323FA00F0C307A0
:1060A80009D42046FFF7BAFF28B129462046BDE8A3
:1060B8003840FEF7A3BE38BD2DE9F04190461E4694
:1060C800072407460D46B8F1000F04D1C4F10701B3
:1060D80046FA01F101E046FA04F101F001013846FF
:1060E800FFF7D1FF01212846FFF7CDFF0021284601
:1060F800FFF7C9FF14F1FF34E5D2BDE8F0810000D5
:1061080070B50C4C0C4E0D4D00212046FFF720F9C0
:1061180020460B4C3246294600F034F8012120462F
:10612800FFF716F9324629462046BDE8704000F0D0
:1061380029B800BFECE6032078E3032049530D009B
:10614800FCE6032038B50B4D296811F001040FD186
:106158002846FDF7ABFF58B121460748FFF792FDE7
:106168002846FDF7A8FF054A0549034800F00AF844
:10617800014838BD10E7032014E7032078E3032023
:10618800355C0D000B460146184600F085B9000045
:10619800184B1A68D1075CBF01221A60164B1A689F
:1061A800D2075CBF01221A60144B1A68D0075CBF83
:1061B80001221A60124B1A68D1075CBF01221A60CB
:1061C800104B1A68D2075CBF01221A600E4B1A687E
:1061D800D0075CBF01221A600C4B1A68D1075CBF5C
:1061E80001221A600A4B1A68D2075CBF01221A60A2
:1061F800704700BF44E7032040E703203CE7032043
:1062080038E7032034E7032030E703202CE7032096
:1062180028E70320244B1A68D0075CBF01221A60C4
:10622800224B1A68D1075CBF01221A60204B1A68FA
:10623800D2075CBF01221A601E4B1A68D0075CBFE8
:1062480001221A601C4B1A68D1075CBF01221A6030
:106258001A4B1A68D2075CBF01221A60184B1A68D9
:10626800D0075CBF01221A60164B1A68D1075CBFC1
:1062780001221A60144B1A68D2075CBF01221A6007
:10628800124B1A68D0075CBF01221A60104B1A68BB
:10629800D1075CBF01221A600E4B1A68D2075CBF97
:1062A80001221A60704700BF74E7032070E70320DB
:1062B8006CE7032068E7032064E7032060E7032016
:1062C8005CE7032058E7032054E7032050E7032046
:1062D8004CE7032048E70320244B1A68D0075CBF2B
:1062E80001221A60224B1A68D1075CBF01221A608A
:1062F800204B1A68D2075CBF01221A601E4B1A682D
:10630800D0075CBF01221A601C4B1A68D1075CBF1A
:1063180001221A601A4B1A68D2075CBF01221A6060
:10632800184B1A68D0075CBF01221A60164B1A680E
:10633800D1075CBF01221A60144B1A68D2075CBFF0
:1063480001221A60124B1A68D0075CBF01221A603A
:10635800104B1A68D1075CBF01221A600E4B1A68ED
:10636800D2075CBF01221A60704700BFA4E7032070
:10637800A0E703209CE7032098E7032094E7032085
:1063880090E703208CE7032088E7032084E70320B5
:1063980080E703207CE7032078E70320184B1A687E
:1063A800D1075CBF01221A60164B1A68D2075CBF7E
:1063B80001221A60144B1A68D0075CBF01221A60C8
:1063C800124B1A68D1075CBF01221A60104B1A6879
:1063D800D2075CBF01221A600E4B1A68D0075CBF57
:1063E80001221A600C4B1A68D1075CBF01221A609F
:1063F8000A4B1A68D2075CBF01221A60704700BFB7
:10640800C4E70320C0E70320BCE70320B8E7032064
:10641800B4E70320B0E70320ACE70320A8E7032094
:10642800094B70B51C68256C06463DB91A20FEF765
:1064380011FF1A222064294600F03FF9216C3046EA
:10644800BDE8704000F002B828E3032010B50C4600
:1064580041690369826986B001F26C71049101682F
:1064680003914168029181680191C16800910749CF
:1064780003EB43030B44064902EB42020A4420465D
:106488000449FEF7FFFE204606B010BDCD770D008B
:10649800B8770D00F1770D0010B5054C13462CB1F7
:1064A8000A4601460220AFF3008010BD204610BD09
:1064B8000000000038B5074B1C68E36B05461BB9A4
:1064C8002420FEF7C7FEE063E16B2846BDE83840AC
:1064D80000F002B828E303202DE9F0410C4680467D
:1064E80000F094FC21460746404600F093FC4669BC
:1064F80006F26C76B307044605D1642296FBF2F3E4
:1065080002FB13634BB94FF4C87596FBF5F305FB13
:106518001365B5FA85F35B0900E001235F4A30256E
:1065280005FB032500F0A6FA00F0A6FA5C4B1B68F1
:10653800F3B17B689E4205D13968D8F80030FA6912
:1065480041B90AE0304600F0EDF90028F4D14FF0E7
:10655800FF330DE0934208DB01E0934207DABA6BA0
:106568009342ACBF0023012302E0002300E0012393
:106578002362236A012B0CBFF96B396A4FF46163FC
:106588003C2091FBF3F603FB1613616893FBF0F2D2
:1065980000FB12302368891AA26861601B1A921BDB
:1065A8003B2B2360A26003DD013161603C3B04E0CA
:1065B800002B03DA013961603C33236063683B2BAD
:1065C80003DD0132A2603C3B04E0002B03DA013A10
:1065D800A2603C336360A368172B22DDE2690132B5
:1065E800E261A2690132062AC8BF0022A261E268FC
:1065F800183B0132A3602369E26055F823108A42F0
:1066080046DD01330C2B0CBF63692361A2EB010249
:10661800E26001BF013300222261636108BFE261C9
:1066280036E0002B34DAE269013AE261A269013A04
:1066380048BF0622A261E2681833013AE260A3600B
:1066480032BB2369013B01D423611DE00B23236185
:1066580063695A1E12F0030F626103F26B7305D16E
:10666800642193FBF1F201FB12324AB94FF4C8716D
:1066780093FBF1F201FB1233B3FA83F35B0900E0F9
:10668800012303F5B673E361236955F82330E3600A
:1066980000F0F1F92046BDE8F08100BF78790D00DF
:1066A800E4E7032010B5431E0A44914204D011F8D0
:1066B800014B03F8014FF8E710BD0244034693422B
:1066C80002D003F8011BFAE77047000038B5124BF7
:1066D8001C68A36B0546D3B91820FEF7BBFD43F22F
:1066E8000E33A06303804AF6CD33438041F234234E
:1066F80083804EF26D63C3804DF6EC6303810523FE
:1067080043810B23838101220023C0E90423A36B67
:1067180000221D615A6138BD28E30320194B10B5CA
:106728001C68A36BD3B91820FEF794FD43F20E330F
:10673800A06303804AF6CD33438041F2342383803B
:106748004EF26D63C3804DF6EC63038105234381EC
:106758000B23838101220023C0E90423A16B0A4C87
:106768000B694869094A5C4302FB0040A3FB02230A
:106778000132034443F10003C1E9042323F000403C
:1067880010BD00BF28E303202DF451582D7F954CF0
:1067980010F8012B11F8013B012A28BF9A42F7D0C3
:1067A800D01A7047034611F8012B03F8012B002A71
:1067B800F9D17047034613F8012B002AFBD1181AA8
:1067C8000138704730B582B1451E013915F8013FCF
:1067D80011F8014FA34206D1EC431444E04201D022
:1067E800002BF3D11C46181B30BD104630BD10B528
:1067F800034642B111F8014B03F8014B013A002C52
:10680800F7D11A4400E010BD934202D003F8014BBF
:10681800FAE710BD2DE9F04780463C48D0F80090D3
:106828000E46354615F8014B09EB0400407800F098
:10683800080000F0FF0708B12E46F2E72D2C03D11F
:10684800B51C7478012703E02B2C04BF7478B51CA1
:1068580013B1102B0AD153E0302C4FD1287800F017
:10686800DF00582845D16C78102302354FF0FF3CE3
:106878000026BCFBF3FC03FB0CFA6FEA0A0A30465D
:1068880009EB040E9EF801E01EF0040F01D0303C25
:106898000BE01EF0030E1AD0BEF1010F0CBF4FF033
:1068A800370E4FF0570ECEEB0404A3420FDD002E37
:1068B80008DB604506D801D1544503DC03FB0040E2
:1068C800012601E04FF0FF3615F8014BD8E7002EFE
:1068D80007DA2223C8F800304FF0FF302AB9BDE8A4
:1068E800F08707B1404272B106B1691E1160BDE878
:1068F800F0873024002BB9D10823B7E70A23B5E77E
:10690800302CABD0B2E7BDE8F08700BFC4E203206B
:1069180013460A46014602480068FFF77BBF00BFDE
:1069280028E303202DE9F74F044600F06FFA40F200
:10693800B1739C4240F396806FF4F663E318A4F2B7
:10694800B2729B1040F26D1505FB0235A4F26D7210
:106958006FF0630392FBF3F36FF4C8622B44A5183E
:106968004FF4C87295FBF2F51D44642394FBF2F7CB
:1069780094FBF3F602FB174703FB164600F13803B6
:10698800B7FA87FE019304F0030344604FEA5E1EE2
:10699800014600934FF0070C0B7A4A2B0ED14B6936
:1069A800009AEC1802B906B927B93B2BD4BF0023CB
:1069B800012300E000232344013B3FE0442B02D1A4
:1069C8004B692B443AE0009B2BB9002E0CBFF046D4
:1069D8004FF0010800E0F046244BCC68302202FB5F
:1069E8000838A8F1040AA9460123A34204DA5AF890
:1069F80004BF0133D944F8E709F1040393FBFCFB16
:106A0800CBEBCB0A012CCAEB030A4B69B8BF0124B4
:106A180004F18044B3EB0A0A0B6904F1FF3403F173
:106A2800FF3348BF0AF1070AC3EBC30358F82440F1
:106A38005344A34201DB073BFBE74B448C690C4AF8
:106A480002FB03430C6A234441F81C3F019B994213
:106A5800A2D1C369826B9342ACBF002301230360B8
:106A6800012000E0002003B0BDE8F08F78790D0028
:106A78008051010070477047014B186800F002B858
:106A880028E303202DE9F04F8DB0074600F0BEF94A
:106A9800B049B14E0446384600F0B0F9054660B931
:106AA800AE4BAF4A1860AF4B1860AF4B30681A60F6
:106AB8005A60FEF7D7FB356048E1316879B930682C
:106AC800FEF7D0FB2846FFF775FE411C3846FEF757
:106AD800F1FB306048B12946FFF764FE05E0FFF797
:106AE80057FE002800F03281E9E72B789F4AA04939
:106AF8003A2B08BF01350AAE33462846FEF7CAFBD3
:106B0800002840F323810A9BEF18EB5C2D2B03D15F
:106B180001374FF0FF3503E02B2B08BF0137012564
:106B28000DF1200A0DF11E0B4FF000080396CDF869
:106B380008A00196CDF800B0334607AA8D49ADF8F4
:106B48001E803846ADF82080FEF7A4FB404540F390
:106B5800FD80BDF81E20BDF82030DFF824923C21CE
:106B680001FB0233BDF81C204FF4616101FB0233C5
:106B78005D4325627C4D7D4B2B600A9B7C491F44FD
:106B88004A4633463846FEF785FB404508DC2B6805
:106B98006B60724B226A1A60724BC3F80080D5E0B2
:106BA8000A9BC5F80490FD18FB5C2D2B03D1013519
:106BB8004FF0FF3703E02B2B08BF013501270023D7
:106BC800ADF81C30ADF81E30ADF820300A930396AE
:106BD800CDF808A00196CDF800B0334607AA65495C
:106BE8002846FEF757FB002804DC236AA3F56163F7
:106BF800E3630EE0BDF81E20BDF820303C2101FB08
:106C08000233BDF81C204FF4616101FB02335F437E
:106C1800E7630A9B27461D444FF000092B782C2B6D
:106C280008BF013595F80080B8F14D0F26D10DF158
:106C38002603029309AB00930396019633460DF1A0
:106C480022024D492846FEF725FB03287ED1BDF8D0
:106C580022104B1E0B2B79D8BDF82420531E042B71
:106C680074D8BDF82630062B70D887F80880F960EC
:106C78003A617B610A9B05EB03082AE0B8F14A0FE9
:106C880006BF0135434644230A220BA9284605932B
:106C9800FFF73EFEDDF82C80ADF826004545059B44
:106CA80014D14D23B9F1000F07D123720323E360F8
:106CB80002232361C4F814900BE084F824300B23DA
:106CC800A3620123E3620023236302E080B23B72E4
:106CD80078610223ADF81C300023ADF81E30ADF802
:106CE80020300A9398F800302F2B0BD10396CDF85B
:106CF80008A00196CDF800B0334607AA1F494046C0
:106D0800FEF7C8FABDF81E20BDF820303C2101FB73
:106D18000233BDF81C204FF4616101FB0233BB61F3
:106D28000A9D09F10109B9F1020F454407F11C0751
:106D38007FF474AF6068FFF7F5FD084B226A1A60AC
:106D4800E36B9B1A074A18BF012313600DB0BDE817
:106D5800F08F00BFD8790D00E0E70320E8E70320B3
:106D6800DB790D00E4E703202CE30320D3E70320BD
:106D7800DF790D00027A0D00EE790D00017A0D0021
:106D8800C8E703202DE9F84F07468B46904600F0E8
:106D9800D9F8194B1D689A463DB15C46234613F84D
:106DA800012B42B13D2A1C46F8D1384600F0CBF8F9
:106DB8000020BDE8F88FCBEB0404A94659F8040B72
:106DC8000028F2D022465946FFF7FCFC88B959F84A
:106DD800043C1E191B5D3D2B0BD1DAF80030ED1A6F
:106DE800AD103846C8F8005000F0ADF8701CBDE88A
:106DF800F88F4D46E1E700BF74E3032007B501AA09
:106E0800FFF7C0FF03B05DF804FB000000487047BF
:106E180034E303200268474BF0B592FBF3F403FB1D
:106E28001422002ABCBF02F5A83202F5C0724FF442
:106E3800616004F52F2492FBF0F300FB13224FF05E
:106E48003C00ACBF04F66C2404F66B248B6092FB08
:106E5800F0F300FB13224B600A600723E21C92FB4D
:106E6800F3F3C3EBC303D31A8B61334B334D94FB5A
:106E7800F5F503FB054448F6AC62B4FBF2F2224494
:106E880040F2B457B4FBF7F3D21A2D48B4FBF0F034
:106E980048F69466131AB3FBF6F6344440F26D12C2
:106EA800B3FBF2F0B3FBF7F3E31A02FB10339924B8
:106EB80003EB83020232B2FBF4F20A2A04FB02F467
:106EC80004F102064FF00504B6FBF4F434BF0226C1
:106ED8006FF0090616444FF4C87202FB05055F1CE3
:106EE800012E98BF0135B3F5997FA7EB040702D3AC
:106EF800A3F5997214E0820705D16424B0FBF4F27B
:106F080004FB12024AB94FF4C872B0FBF2F402FB58
:106F18001400B0FA80F2520900E001223B331A440F
:106F2800A5F26C750023CA614D610E61CF600B62DA
:106F38000846F0BD805101004FC5FDFFB13A02007F
:106F4800B03A0200704770471D400D0059400D00CF
:106F580085400D0089400D0000000000426567690A
:106F68006E6C696E53796E63005468652063757240
:106F780072656E74206461746520616E6420746942
:106F88006D65206973202573200A005468652063A5
:106F9800757272656E742074696D65206973202539
:106FA80073200A0043757272656E742074696D658A
:106FB8002069732025730000000000000000000015
:106FC800C5400D00F3420D00214D0D0019560D006E
:106FD8003D460D00214A0D00A1440D002D430D0032
:106FE800E14A0D00774B0D00AF4B0D00CB4B0D0068
:106FF8000000000000000000000000000000000089
:10700800214D0D0019560D00A1400D00214A0D001B
:10701800414B0D005D4B0D00E14A0D00774B0D0013
:10702800AF4B0D00CB4B0D0000000000003E5B4F46
:107038005B3E3E6B4F6B3E1C3E7C3E1C183C7E3CD0
:10704800181C577D571C1C5E7F5E1C00183C1800DE
:10705800FFE7C3E7FF0018241800FFE7DBE7FF306E
:10706800483A060E2629792926407F050507407FDC
:1070780005253F5A3CE73C5A7F3E1C1C08081C1C4F
:107088003E7F14227F22145F5F005F5F06097F0145
:107098007F006689956A606060606094A2FFA29430
:1070A80008047E040810207E201008082A1C0808FE
:1070B8001C2A08081E101010100C1E0C1E0C30384C
:1070C8003E3830060E3E0E06000000000000005F4D
:1070D80000000007000700147F147F14242A7F2A69
:1070E800122313086462364956205000080703002B
:1070F800001C2241000041221C002A1C7F1C2A0877
:10710800083E0808008070300008080808080000D9
:1071180060600020100804023E5149453E00427F4D
:10712800400072494949462141494D331814127F9C
:107138001027454545393C4A49493141211109073C
:107148003649494936464949291E000014000000BD
:10715800403400000008142241141414141400418F
:1071680022140802015909063E415D594E7C12114C
:10717800127C7F494949363E414141227F41414184
:107188003E7F494949417F090909013E41415173FF
:107198007F0808087F00417F41002040413F017F70
:1071A800081422417F404040407F021C027F7F0438
:1071B80008107F3E4141413E7F090909063E415181
:1071C800215E7F09192946264949493203017F0171
:1071D800033F4040403F1F2040201F3F4038403F72
:1071E800631408146303047804036159494D430088
:1071F8007F4141410204081020004141417F0402BF
:107208000102044040404040000307080020545455
:1072180078407F2844443838444444283844442833
:107228007F385454541800087E090218A4A49C7886
:107238007F0804047800447D40002040403D007FE2
:107248001028440000417F40007C047804787C08C2
:107258000404783844444438FC1824241818242496
:1072680018FC7C08040408485454542404043F447B
:10727800243C4040207C1C2040201C3C4030403CAA
:1072880044281028444C9090907C4464544C44000A
:10729800083641000000770000004136080002016E
:1072A8000204023C2623263C1EA1A161123A40405A
:1072B800207A3854545559215555794121545478D8
:1072C80041215554784020545579400C1E52721271
:1072D80039555555593954545459395554545800F9
:1072E80000457C410002457D420001457C40F02973
:1072F8002429F0F0282528F07C54554500205454C2
:107308007C547C0A097F4932494949323248484805
:1073180032324A4848303A4141217A3A424020784C
:10732800009DA0A07D39444444393D4040403D3C47
:1073380024FF2424487E4943662B2FFC2F2BFF096A
:1073480029F620C0887E090320545479410000445E
:107358007D413048484A32384040227A007A0A0A49
:10736800727D0D19317D2629292F282629292926BC
:1073780030484D4020380808080808080808382F01
:1073880010C8ACBA2F102834FA00007B000008148B
:107398002A142222142A1408AA005500AAAA55AAB7
:1073A80055AA000000FF00101010FF00141414FF6D
:1073B800001010FF00FF1010F010F0141414FC005F
:1073C8001414F700FF0000FF00FF1414F404FC1469
:1073D8001417101F10101F101F1414141F00101062
:1073E80010F0000000001F101010101F10101010D7
:1073F800F010000000FF101010101010101010FFF7
:1074080010000000FF140000FF00FF00001F10170D
:107418000000FC04F414141710171414F404F400F6
:1074280000FF00F714141414141414F700F71414BC
:1074380014171410101F101F141414F4141010F043
:1074480010F000001F101F0000001F14000000FCB7
:10745800140000F010F01010FF10FF141414FF14A3
:107468001010101F00000000F010FFFFFFFFFFF0DA
:10747800F0F0F0F0FFFFFF0000000000FFFF0F0F2B
:107488000F0F0F38444438447C2A2A3E147E0202E7
:107498000606027E027E0263554941633844443C35
:1074A80004407E201E2006027E020299A5E7A599C7
:1074B8001C2A492A1C4C7201724C304A4D4D3030FE
:1074C80048784830BC625A463D3E494949007E01E9
:1074D80001017E2A2A2A2A2A44445F444440514A08
:1074E800444040444A51400000FF0103E080FF004F
:1074F8000008086B6B083612362436060F090F068B
:10750800000018180000001010003040FF010100B2
:107518001F01011E00191D1712003C3C3C3C0000D5
:107528000000000000000000000000002B530D00C8
:1075380021530D0017530D000D530D0001530D007D
:10754800F5520D00E9520D00E1520D00D7520D0021
:10755800CD520D00455F0D00000000000000000046
:1075680049530D004B530D000008101820283038DF
:1075780066006C6E00666E00636F64650064657417
:1075880061696C000D0A00253031307520005D20DE
:10759800002564002C200028293A2000205B006385
:1075A8006F6465203D200025690064657461696C1D
:1075B80073203D2000626175640053657269616CD7
:1075C8000053657269616C3100747970650070618F
:1075D80072616D00636D6400696400686E640073B5
:1075E80074726D0066696C74006C766C006164641A
:1075F80048616E646C65720072656D6F766548618E
:107608006E646C657200656E756D48616E646C655C
:107618007273004A534F4E53747265616D4C6F67B5
:1076280048616E646C657200617070006E6F6E65A3
:1076380000747261636500696E666F007761726ECF
:10764800006572726F720070616E696300616C6CC4
:1076580000252B3033643A253032750025592D2505
:107668006D2D25645425483A254D3A2553257A0031
:1076780061736374696D650000000000000000001C
:107688009F590D0091590D0093590D0000000000FD
:1076980000000000795A0D00BD5A0D00975A0D00E0
:1076A80019560D00915A0D007B5A0D00835A0D0092
:1076B800B75A0D008B5A0D00755A0D0000000000D6
:1076C80000000000615B0D00855B0D00915B0D0003
:1076D80019560D006D5B0D00795B0D00735B0D0095
:1076E8007F5B0D00635B0D00675B0D000000000011
:1076F80000000000355C0D007F5C0D00575C0D003C
:10770800375C0D005F5C0D00675C0D006F5C0D0061
:10771800775C0D000000000000000000695D0D00AE
:107728005F5D0D00555D0D004B5D0D003F5D0D006B
:10773800335D0D00275D0D001F5D0D00155D0D000B
:107748000B5D0D00455F0D0000000000000000000B
:10775800BF5E0D00B55E0D00AB5E0D00615E0D00F5
:107768009F5E0D00935E0D00875E0D007F5E0D002D
:10777800755E0D006B5E0D00455F0D00000000009A
:1077880000000000DD5E0D00E75E0D00F15E0D00FB
:10779800FB5E0D00055F0D00115F0D001D5F0D0004
:1077A800295F0D00315F0D003B5F0D00455F0D0047
:1077B80053756E4D6F6E547565576564546875469C
:1077C80072695361744A616E4665624D61724170B7
:1077D800724D61794A756E4A756C4175675365706B
:1077E8004F63744E6F76446563252E337320252EC0
:1077F800337325336420252E32643A252E32643AB9
:10780800252E32642025640A000020202020202014
:107818002020202828282828202020202020202038
:107828002020202020202020202088101010101038
:107838001010101010101010101004040404040488
:10784800040404041010101010101041414141416B
:1078580041010101010101010101010101010101D0
:107868000101010101101010101010424242424261
:1078780042020202020202020202020202020202A0
:107888000202020202101010102000000000000086
:1078980000000000000000000000000000000000E0
:1078A80000000000000000000000000000000000D0
:1078B80000000000000000000000000000000000C0
:1078C80000000000000000000000000000000000B0
:1078D80000000000000000000000000000000000A0
:1078E8000000000000000000000000000000000090
:1078F8000000000000000000000000000000000080
:10790800000000000000000000000000000000006F
:10791800000000000000000000000000000000005F
:10792800000000000000000000000000000000004F
:10793800000000000000000000000000000000003F
:10794800000000000000000000000000000000002F
:10795800000000000000000000000000000000001F
:1079680000000000000000000000000043000000CC
:107978001F0000001C0000001F0000001E00000087
:107988001F0000001E0000001F0000001F00000074
:107998001E0000001F0000001E0000001F00000065
:1079A8001F0000001D0000001F0000001E00000056
:1079B8001F0000001E0000001F0000001F00000044
:1079C8001E0000001F0000001E0000001F00000035
:1079D800545A00474D54002531305B5E302D392C08
:1079E8002B2D5D256E004D256875256E2E25687535
:1079F800256E2E256875256E002F256875256E3A2B
:107A0800256875256E3A256875256E0001430D00B9
:107A18001D4A0D00B14D0D0035530D0061540D0088
:107A280071570D0069580D00A1580D00155E0D0025
:107A3800C95E0D0011600D0009610D0099610D000E
:107A48001D620D00E1620D00A5630D00000000003D
:087A5800000000000000000026
:107A6000000103070F1F3F7F0080C0E0F0F8FCFE1D
:107A70000000000000000000000000000000000006
:107A800000000000000000000000000000000000F6
:107A900000000000000000000000000000000000E6
:107AA0000000000000000000000000000000008056
:107AB00080800000000000000000000000000000C6
:107AC000008080C0C0000000000000000000000036
:107AD00000000000000000000000000000000000A6
:107AE0000000000000000000000000000000000096
:107AF0000000000000000000000000000000000086
:107B00000000000080C0E0F0F8FCF8E00000000099
:107B100000000000000000000000000000808080E5
:107B2000808000808000000000808080808000FFD6
:107B3000FFFF000000008080808000008080000047
:107B400080FFFF80800080800080808080008080B7
:107B50000000000000808000008C8E84000080F80F
:107B6000F8F88000000000000000000000000000A5
:107B7000F0F0F0F0F0F0F0F0F0F0F0F0E0E0C080C5
:107B800000E0FCFEFFFFFF7FFFFFFFFFFF000000A4
:107B90000000000000000000000000FEFFC701011F
:107BA000010183FFFF00007CFEC70101010183FF8B
:107BB000FFFF0038FEC78301010183C7FFFF0000FC
:107BC00001FFFF010100FFFF0701010100007FFF2E
:107BD00080000000FFFF7F0000FFFFFF000001FFAB
:107BE000FFFF010000000000000000000000000096
:107BF000030F3F7F7FFFFFFFFFFFFFFFE7C7C78F39
:107C00008F9FBFFFFFC3C0F0FFFFFFFFFFFCFCFC27
:107C1000FCFCFCFCFCF8F8F0F0E0C00001030303FE
:107C20000303010303000000000103030303010138
:107C3000030100000001030303030101030300002B
:107C40000003030000000303000000000000000127
:107C5000030303030301000000010301000000030C
:107C60000301000000000000000000000000000010
:107C700000000080C0E0F0F9FFFFFFFFFF3F1F0F93
:107C800087C7F7FFFF1F1F3DFCF8F8F8F87C7DFF62
:107C9000FFFFFFFFFFFFFF7F3F0F070030300000B7
:107CA00000000000000000000000000000000000D4
:107CB00000000000FEFEFC000000000000000000CC
:107CC00000000000000000000000000000E0C00014
:107CD0000000000000000000000030300000000044
:107CE0000000000000000000000000000000000094
:107CF00000C0FEFFFFFFFFFFFFFFFFFF7F7F3F1F73
:107D00000F071F7FFFFFF8F8FFFFFFFFFFFEF8E000
:107D1000000000010000000000000000FEFE000066
:107D200000FCFEFC0C06060EFCF80000F0F81C0E31
:107D30000606060CFFFFFF0000FEFE00000000FC30
:107D4000FEFC00183C7E66E6CE84000006FFFF06BF
:107D500006FCFEFC0C0606060000FEFE0000C0F855
:107D6000FC4E4646464E7C7840183C76E6CECC80AB
:107D70000000000000000000000000000000000003
:107D80000000000001070F1F1F3F3F3F3F1F0F0371
:107D90000000000000000000000000000F0F0000C5
:107DA000000F0F0F000000000F0F000003070E0C64
:107DB00018180C060F0F0F0000010F0E0C180C0FF7
:107DC000070100040E0C180C0F070000000F0F0035
:107DD000000F0F0F0000000000000F0F0000000751
:107DE000070C0C181C0C060600040E0C180C0F07D0
:107DF0000000000000000000000000000000000083
:107E00000000000000000000000000000000000072
:107E10000000000000000000000000000000000062
:107E20000000000000000000000000000000000052
:107E30000000000000000000000000000000000042
:107E40000000000000000000000000000000000032
:107E50000000000000000000000000000000000022
:107E60000000000000000000000000000000000012
:107E700078760D0011780D000000000014790D00D7
:107E800034790D0054790D0000000000000000005E
:107E9000000000000000000074790D0000000000E8
:107EA00000000000000000000000000000000000D2
:107EB00000000000000000000000000000000000C2
:107EC00000000000000000000000000000000000B2
:107ED0000000000000000000C8E20320DB790D0074
:107EE000DB790D0001000000000000004A000000E6
:107EF0000000000000000000000000000000000082
:107F000000000000000000004A0000000000000027
:107F10000000000000000000000000000000000061
:087F200000000000ECE7032063
:107F2800FFFFFFFF00000102030405060708090A16
:107F38000B0C0D0E0F101112131415161718191A11
:087F48001B1C1D1E1F20280058
:047F50007856341219
:04000003D0004018D1
:00000001FF
